:020000040800F2
:1000000000000220813E0008AD0B0008AF0B000885
:10001000B10B0008B30B0008B50B0008000000008E
:10002000000000000000000000000000113C00087B
:10003000B70B000800000000B13C0008153D0008A7
:10004000D13E0008D13E0008D13E0008D13E000854
:10005000D13E0008D13E0008D13E0008D13E000844
:10006000D13E0008D13E0008D13E0008D13E000834
:10007000D13E0008D13E0008D13E0008D13E000824
:10008000D13E0008D13E0008D13E0008000000002B
:10009000000000000000000000000000D13E000849
:1000A000D13E0008B90B0008D13E0008D13E00083F
:1000B000D13E0008D13E0008C90B0008D13E00081F
:1000C000D13E0008D13E0008D13E0008D13E0008D4
:1000D000D13E0008D13E0008D13E000800000000DB
:1000E000D13E0008D13E0008D13E000800000000CB
:1000F000000000000000000000000000D13E0008E9
:1001000000000000D13E0008D13E0008D13E0008AA
:1001100000000000000000000000000000000000DF
:10012000D13E0008D13E0008D13E0008D13E000873
:10013000D13E0008000000000000000000000000A8
:10014000000000000000000000000000D13E000898
:10015000D13E0008D13E0008D13E0008D90B00086E
:10016000D13E0008D13E0008000000000000000061
:10017000000000000000000000000000000000007F
:1001800000000000D13E0008000000000000000058
:08019000D13E0008D13E000839
:1001A00010B5054C237833B9044B13B10448AFF3B1
:1001B00000800123237010BD140000200000000007
:1001C000483F000808B5034B1BB103490348AFF390
:1001D000008008BD0000000018000020483F000813
:1001E000034613F8012B002AFBD1181A0138704777
:1001F00053B94AB9002908BF00281CBF4FF0FF318E
:100200004FF0FF3000F074B9ADF1080C6DE904CE89
:1002100000F006F8DDF804E0DDE9022304B07047E1
:100220002DE9F047089D04468E46002B4DD18A42A9
:10023000944669D9B2FA82F252B101FA02F3C2F1DC
:10024000200120FA01F10CFA02FC41EA030E94406D
:100250004FEA1C48210CBEFBF8F61FFA8CF708FB8E
:1002600016E341EA034306FB07F199420AD91CEB66
:10027000030306F1FF3080F01F81994240F21C8198
:10028000023E63445B1AA4B2B3FBF8F008FB1033E0
:1002900044EA034400FB07F7A7420AD91CEB040415
:1002A00000F1FF3380F00A81A74240F207816444E5
:1002B000023840EA0640E41B00261DB1D44000236A
:1002C000C5E900433146BDE8F0878B4209D9002DCE
:1002D00000F0EF800026C5E9000130463146BDE858
:1002E000F087B3FA83F6002E4AD18B4202D38242C2
:1002F00000F2F980841A61EB030301209E46002D71
:10030000E0D0C5E9004EDDE702B9FFDEB2FA82F2C5
:10031000002A40F09280A1EB0C014FEA1C471FFA23
:100320008CFE0126200CB1FBF7F307FB131140EA0A
:1003300001410EFB03F0884208D91CEB010103F1D7
:10034000FF3802D2884200F2CB804346091AA4B299
:10035000B1FBF7F007FB101144EA01440EFB00FE6D
:10036000A64508D91CEB040400F1FF3102D2A645D2
:1003700000F2BB800846A4EB0E0440EA03409CE771
:10038000C6F12007B34022FA07FC4CEA030C20FA1E
:1003900007F401FA06F31C43F9404FEA1C4900FA3E
:1003A00006F3B1FBF9F8200C1FFA8CFE09FB1811BB
:1003B00040EA014108FB0EF0884202FA06F20BD92E
:1003C0001CEB010108F1FF3A80F08880884240F27E
:1003D0008580A8F102086144091AA4B2B1FBF9F0C2
:1003E00009FB101144EA014100FB0EFE8E4508D9BD
:1003F0001CEB010100F1FF346CD28E456AD9023842
:10040000614440EA0840A0FB0294A1EB0E01A14226
:10041000C846A64656D353D05DB1B3EB080261EB94
:100420000E0101FA07F722FA06F3F1401F43C5E96E
:10043000007100263146BDE8F087C2F12003D840A4
:100440000CFA02FC21FA03F3914001434FEA1C47E6
:100450001FFA8CFEB3FBF7F007FB10360B0C43EAD8
:10046000064300FB0EF69E4204FA02F408D91CEB88
:10047000030300F1FF382FD29E422DD90238634486
:100480009B1B89B2B3FBF7F607FB163341EA034126
:1004900006FB0EF38B4208D91CEB010106F1FF3875
:1004A00016D28B4214D9023E6144C91A46EA00466C
:1004B00038E72E46284605E70646E3E61846F8E6FE
:1004C0004B45A9D2B9EB020864EB0C0E0138A3E747
:1004D0004646EAE7204694E74046D1E7D0467BE728
:1004E000023B614432E7304609E76444023842E7A0
:1004F000704700BF08B50268034B9A4200D008BDA0
:1005000001F05AFBFBE700BF0044014072B6FEE772
:1005100000B595B03022002108A803F00DFD00239E
:10052000039304930593069307930193184A116C60
:1005300041F080511164126C02F080520192019AD4
:100540000293144A116841F440411160126802F4A8
:1005500040420292029A012208924FF4803209929C
:100560000E9308A800F02EFE70B90F230393012309
:100570000493002105910691079103A801F072F8F8
:1005800020B915B05DF804FBFFF7C0FFFFF7BEFF11
:10059000003802400070004008B501F0F3FAFFF7A0
:1005A000B7FF00F00BF800F021F900F05BFA00F063
:1005B000A3FA00F0E3F803F04FF9FEE72DE9F0416C
:1005C0008AB0002405940694079408940994019431
:1005D0002F4B1A6B42F004021A631A6B02F00402EA
:1005E0000192019A02941A6B42F080021A631A6B0C
:1005F00002F080020292029A03941A6B42F0010206
:100600001A631A6B02F001020392039A04941A6BA4
:1006100042F002021A631B6B03F002030493049B73
:10062000DFF8788022464FF40051404601F0EEF9A1
:10063000184F22464FF40041384601F0E7F9164EB4
:1006400022464FF49C71304601F0E0F94FF400531C
:100650000593012506950795089405A9404601F0E4
:10066000F5F84FF40043059306950794089405A9FF
:10067000384601F0EBF84FF49C7305930695079408
:10068000089405A9304601F0E1F80AB0BDE8F08110
:10069000003802400000024000040240000802400E
:1006A00038B50F4800F0D4FB002403E00D4B0022C6
:1006B0001A550134012C12DC094D4FF0FF31284648
:1006C00000F04AFC284600F0A3FC074B43F8240046
:1006D000B0F5806FEADA034B01221A55E9E738BD1D
:1006E000A00200203C0000204000002008B5C820E7
:1006F00003F0ECF8FFF7D4FFC82003F0E7F8F6E7C3
:1007000008B5FFF7F3FF000000B583B00E4B197872
:100710000E4A11705A780E4B1A700E4B1D682846FF
:10072000FFF75EFD0C4CFA2382B22946204601F009
:10073000B8FE642308226946204601F01EFF01200E
:1007400003F0C4F8E2E700BF3C00002048000020AE
:1007500049000020000000203003002008B5FFF70A
:10076000D3FF0000034B0360034B0B608023136037
:10077000704700BF4C0200204C00002030B591B003
:1007800000250E950F9501210EA803F0A6F8134B36
:100790001860134C0DF11C0CA646BEE80F00ACE827
:1007A0000F009EE807008CE80700294607A803F021
:1007B00058F80C4B1860EE4604F11C0CBCE80F0016
:1007C000AEE80F009CE807008EE80700294668465F
:1007D00003F047F8044B186011B030BD3000002022
:1007E000603F0008380000203400002000B585B0CC
:1007F000002300930193029303934E484E4A0260F4
:100800004360836001220261037680F82030C36276
:100810004A498162C3600221C16180F8303042617F
:1008200000F0EAFA002864D1002300930123019329
:100830000523029369463F4800F0EEFB00285BD198
:10084000012300930223019369463A4800F0E4FB38
:10085000002854D1022300930323019369463548AD
:1008600000F0DAFB00284DD1032300930423019309
:100870006946304800F0D0FB002846D1042300939D
:100880000523019369462B4800F0C6FB00283FD1A1
:1008900005230093062301936946264800F0BCFB1C
:1008A000002838D106230093072301936946214885
:1008B00000F0B2FB90BB0723009308230193694625
:1008C0001C4800F0A9FB60BB082300930923019397
:1008D0006946184800F0A0FB30BB092300930A23A7
:1008E00001936946134800F097FB00BB05B05DF823
:1008F00004FBFFF70BFE97E7FFF708FEA0E7FFF703
:1009000005FEA7E7FFF702FEAEE7FFF7FFFDB5E73D
:10091000FFF7FCFDBCE7FFF7F9FDC3E7FFF7F6FDC6
:10092000C9E7FFF7F3FDCFE7FFF7F0FDD5E7FFF7E6
:10093000EDFDDBE7A0020020002001400100000FD8
:1009400030B589B00023039304930593069307936E
:10095000026803F1804303F590339A4201D009B055
:1009600030BD0024009403F58C335A6C42F480723D
:100970005A645A6C02F480720092009A01941A6BC5
:1009800042F001021A631A6B02F001020192019A0D
:1009900002941A6B42F002021A631B6B03F002030B
:1009A0000293029BFF2303930325049503A90548A3
:1009B00000F04CFF03950495059403A9024800F04C
:1009C00045FFCCE7000002400004024002680E4BE5
:1009D0009A4200D0704700B583B00022019203F51F
:1009E0000C33196C41F0040119641B6C03F004030F
:1009F0000193019B0A211E2001F07EF81E2001F0C8
:100A0000B3F803B05DF804FB0008004000B587B000
:100A100000230193029303930493059302680E4B02
:100A20009A4202D007B05DF804FB002300930B4B01
:100A30001A6B42F002021A631B6B03F0020300936D
:100A4000009BC023019302230293059301A904484C
:100A500000F0FCFEE6E700BF00080040003802405E
:100A60000004024000B58BB0002308930993019362
:100A70000293039304930593069307931C481D4A1E
:100A800002600F22426083601322C26003618023F0
:100A9000836101F0A1FAF8B900230893099308A92A
:100AA000134801F065FBD0B9602301930022029244
:100AB0000392059201A90E4801F0ECFA90B90422C4
:100AC0000DEB02010A4801F0E5FA70B90848FFF79A
:100AD0009DFF0BB05DF804FBFFF718FDDCE7FFF7A7
:100AE00015FDE1E7FFF712FDE9E7FFF70FFDEDE781
:100AF000E80200200008004008B50A480A4B0360DD
:100B00004FF4E133436000238360C36003610C2230
:100B100042618361C36101F095FC00B908BDFFF734
:100B2000F5FCFBE7300300200014014010B588B04D
:100B30000023039304930593069307930268194BCC
:100B40009A4201D008B010BD0024019403F59233FD
:100B50005A6C42F020025A645A6C02F02002019250
:100B6000019A02941A6B42F001021A631B6B03F0A4
:100B700001030293029B4FF4C05303930223049397
:100B8000032306930823079303A9074800F05EFE9A
:100B900022460521472000F0AFFF472000F0E4FF88
:100BA000D0E700BF0014014000000240FEE7FEE76E
:100BB000FEE7FEE7FEE7704708B5024801F0D4F80B
:100BC00008BD00BF7403002008B5024801F0CCF84E
:100BD00008BD00BFE802002008B5024801F0CAFDC8
:100BE00008BD00BF3003002000B583B00022009292
:100BF0000D4B596C41F480415964596C01F48041AA
:100C0000009100990192196C41F0805119641B6C9C
:100C100003F080530193019B0F216FF0010000F05E
:100C20006BFF03B05DF804FB0038024030B589B0BB
:100C30000546002401941E4B5A6C42F400325A645B
:100C40005B6C03F400330193019B02A903A800F03D
:100C5000DFFD00F0CDFD03461648A0FB03239B0CEF
:100C6000013B1548154A026040F2E732C26043601A
:100C700004618460846101F083F9044610B1204668
:100C800009B030BD0C4801F02FF804460028F6D119
:100C9000192000F069FF0F2D01D90124EFE7002290
:100CA0002946192000F028FF054B1D60E7E700BF2B
:100CB0000038024083DE1B437403002000440140DF
:100CC000080000204A4B5A6822F440325A605A68A1
:100CD00041680A435A600268536823F48073536082
:100CE00002685368016943EA01235360026853684C
:100CF00023F0407353600268536881680B4353606C
:100D00000268936823F40063936002689368C16883
:100D10000B439360826A374B9A4257D002689368BC
:100D200023F07063936002689368816A0B43936059
:100D30000268936823F04053936002689368C16A25
:100D40000B4393600268936823F002039360026888
:100D50009368017E43EA4103936090F82030002BB2
:100D60003FD00268536843F40063536002685368DD
:100D700023F46043536001684B68426A013A43EAD6
:100D800042334B600268D36A23F47003D362016874
:100D9000CB6AC269013A43EA0253CB6202689368A4
:100DA00023F4007393600268936890F8301043EA6C
:100DB000412393600268936823F480639360026820
:100DC0009368416943EA812393607047026893689E
:100DD00023F0706393600268936823F0405393603C
:100DE000B0E70268536823F400635360CAE700BFAA
:100DF000002301400100000F38B310B50446036C16
:100E000043B1236C13F0100F0BD00120002384F8A2
:100E10003C3010BDFFF794FD0023636484F83C3040
:100E2000EFE7236C23F4885323F0020343F002031B
:100E300023642046FFF746FF00206064236C23F004
:100E4000030343F001032364E0E70120704700003F
:100E500082B00023019390F83C30012B6ED0012327
:100E600080F83C3003689A6812F0010F13D19A6839
:100E700042F001029A60344B1B68344AA2FB032300
:100E80009B0C03EB4303019302E0019B013B0193A5
:100E9000019B002BF9D10268936813F0010F42D037
:100EA000036C23F4E06323F0010343F480730364D1
:100EB000536813F4806F05D0036C23F4405343F45C
:100EC00080530364036C13F4805F19D0436C23F0E8
:100ED00006034364002380F83C306FF02203136064
:100EE0001B4B5B6813F01F0F0DD103689A6812F05B
:100EF000405F25D19A6842F080429A6000201BE052
:100F000000234364E6E70368124A934201D00020BD
:100F100012E09A6812F0405F14D19A6842F0804261
:100F20009A60002008E0036C43F010030364436CF4
:100F300043F001034364002002B070470220FBE746
:100F40000020F9E70020F7E70C00002083DE1B43B8
:100F5000002301400020014070B504460D4603689F
:100F60009A6812F4806F03D09B6813F4807F19D1C4
:100F700000F02EFE064623681A6812F0020F20D1F8
:100F8000B5F1FF3FF7D0B5B923681B6813F0020F26
:100F9000F1D1236C43F004032364002384F83C3034
:100FA000032032E0036C43F020030364002380F845
:100FB0003C30012029E000F00BFE801BA842DAD96A
:100FC000E2E76FF012021A60236C43F400732364AB
:100FD00023689A6812F0405F16D1207EB0B9DA6AB1
:100FE00012F4700F03D09B6813F4806F0DD1236C43
:100FF00023F480732364236C13F4805F05D1236C86
:1010000043F00103236400E0002070BD0020FCE7F2
:101010000368D86C7047000030B482B0002301939D
:1010200090F83C30012B00F0C080012380F83C3068
:101030000B68092B41D90468E2689BB203EB4303B8
:101040001E3B4FF0070C0CFA03F322EA0303E360A4
:101050000468E2680B8803EB43031E3B8D6805FAC6
:1010600003F31343E3604B68062B3DD80468626BBF
:1010700003EB8303053B4FF01F0C0CFA03F322EA4A
:10108000030363630468626B4B6803EB8303053BF4
:10109000B1F800C00CFA03F3134363630268444BD6
:1010A0009A4251D00268424B9A425AD0002380F8AB
:1010B0003C30184602B030BC7047046822699BB2CD
:1010C00003EB43034FF0070C0CFA03F322EA03038C
:1010D0002361046822690B8803EB43038D6805FADA
:1010E00003F313432361BEE70C2B16D805682A6B64
:1010F00003EB8303233B1F2404FA03F322EA0303D5
:101100002B6305682A6B4B6803EB8303233B0C8836
:1011100004FA03F313432B63C0E70568EA6A03EBA1
:101120008303413B1F2404FA03F322EA0303EB6227
:101130000568EA6A4B6803EB8303413B0C8804FAB9
:1011400003F31343EB62A9E70B68122BAAD1194BE7
:101150005A6822F400025A605A6842F480025A60C7
:10116000A0E70B68144A934201D0112B9ED1114B7A
:101170005A6822F480025A605A6842F400025A60A7
:101180000A680D4B9A4291D10C4B1B680C4AA2FB8A
:1011900003239B0C03EB83035B000193019B002B58
:1011A00084D0019B013B0193F8E7022082E700BF56
:1011B0000020014000230140120000100C0000201C
:1011C00083DE1B43002800F0E08170B582B0044646
:1011D000036813F0010F3BD09F4B9B6803F00C0397
:1011E000042B2CD09C4B9B6803F00C03082B21D0C4
:1011F0006368B3F5803F4FD0B3F5A02F52D0964B24
:101200001A6822F480321A601A6822F480221A6066
:101210006368002B50D000F0DBFC05468E4B1B684A
:1012200013F4003F14D100F0D3FC401B6428F5D91F
:101230000320B1E1884B5B6813F4800FD8D0864B54
:101240001B6813F4003F03D06368002B00F09F81FC
:10125000236813F0020F54D07F4B9B6813F00C0FE0
:101260003ED07D4B9B6803F00C03082B33D0E36822
:10127000002B68D0794B01221A6000F0A9FC0546CA
:10128000754B1B6813F0020F54D100F0A1FC401BFA
:101290000228F5D903207FE16F4A136843F48033B5
:1012A0001360B5E76C4B1A6842F480221A601A6822
:1012B00042F480321A60ABE700F08AFC0546664BC8
:1012C0001B6813F4003FC3D000F082FC401B64286D
:1012D000F5D9032060E1604B5B6813F4800FC6D141
:1012E0005D4B1B6813F0020F03D0E368012B40F045
:1012F0005081594A136823F0F803216943EAC10376
:101300001360236813F0080F42D063696BB3534B2B
:101310000122C3F8802E00F05BFC05464E4B5B6F4C
:1013200013F0020F34D100F053FC401B0228F5D912
:10133000032031E1484A136823F0F803216943EAA6
:10134000C1031360DDE7454B00221A6000F040FC4A
:101350000546414B1B6813F0020FD2D000F038FC59
:10136000401B0228F5D9032016E13C4B0022C3F8AC
:10137000802E00F02DFC0546374B5B6F13F0020FFB
:1013800006D000F025FC401B0228F5D9032003E11C
:10139000236813F0040F77D02F4B1B6C13F0805F82
:1013A00033D1002301932C4B1A6C42F080521A6403
:1013B0001B6C03F080530193019B0125284B1B6894
:1013C00013F4807F23D0A368012B34D0052B38D0B1
:1013D000214B1A6F22F001021A671A6F22F00402E1
:1013E0001A67A368002B3DD000F0F2FB06461A4BAB
:1013F0001B6F13F0020F46D100F0EAFB801B41F295
:1014000088339842F3D90320C6E00025D6E7144A72
:10141000136843F48073136000F0DAFB0646104B48
:101420001B6813F4807FCED100F0D2FB801B022812
:10143000F5D90320B0E0084A136F43F001031367A6
:10144000CFE7054B1A6F42F004021A671A6F42F099
:1014500001021A67C5E700BF00380240000047429A
:101460000070004000F0B4FB0646524B1B6F13F0B7
:10147000020F08D000F0ACFB801B41F28833984289
:10148000F3D9032088E0EDB9A369002B00F0838035
:10149000484A926802F00C02082A51D0022B17D059
:1014A000454B00221A6600F093FB0446414B1B6833
:1014B00013F0007F42D000F08BFB001B0228F5D90F
:1014C000032069E03B4A136C23F080531364DBE78D
:1014D000394B00221A6600F07BFB0546354B1B6832
:1014E00013F0007F06D000F073FB401B0228F5D9F3
:1014F000032051E0E369226A1343626A43EA8213DC
:10150000A26A5208013A43EA0243E26A43EA0263EA
:10151000284A5360284B01221A6600F059FB044602
:10152000244B1B6813F0007F06D100F051FB001B19
:101530000228F5D903202FE000202DE000202BE029
:10154000012B2BD01B4B5B6803F48001E2699142B5
:1015500026D103F03F02216A8A4223D1616A47F60D
:10156000C0721A40B2EB811F1ED103F44031A26A4F
:101570005208013AB1EB024F18D103F07063E26AEE
:10158000B3EB026F14D1002006E001207047012068
:1015900002E0012000E0002002B070BD0120FBE766
:1015A0000120F9E70120F7E70120F5E70120F3E743
:1015B0000120F1E7003802400000474208B5264B01
:1015C0009B6803F00C03042B41D0082B41D1224B24
:1015D0005A6802F03F025B6813F4800F12D01E4B72
:1015E0005968C1F388111D480023A1FB0001FEF7D3
:1015F000FFFD194B5B68C3F3014301335B00B0FB94
:10160000F3F027E0144B5868C0F388104FEA401CF1
:10161000BCEB000C6EEB0E0E4FEA8E1343EA9C639C
:101620004FEA8C11B1EB0C0163EB0E03DB0043EAD4
:101630005173C90011EB000C43F100039902002320
:101640004FEA8C2041EA9C51FEF7D2FDD1E70348D6
:1016500000E0034808BD00BF0038024040787D012B
:101660000024F400002800F09B8070B50D4604466D
:101670004F4B1B6803F007038B4208D2CBB24C4A96
:101680001370136803F007038B4240F08B802368CC
:1016900013F0020F17D013F0040F04D0454A9368DB
:1016A00043F4E0539360236813F0080F04D0414AD9
:1016B000936843F4604393603E4A936823F0F003D9
:1016C000A1680B439360236813F0010F32D0636865
:1016D000012B21D09A1E012A25D9364A126812F010
:1016E000020F61D033498A6822F0030213438B60F2
:1016F00000F06EFA06462F4B9B6803F00C036268FD
:10170000B3EB820F16D000F063FA801B41F28833EE
:101710009842F0D9032042E0264A126812F4003FB2
:10172000E0D101203BE0234A126812F0007FD9D1BA
:10173000012034E01E4B1B6803F00703AB4207D9BE
:10174000EAB21B4B1A701B6803F00703AB422DD1A2
:10175000236813F0040F06D0164A936823F4E0536D
:10176000E1680B439360236813F0080F07D0114A18
:10177000936823F46043216943EAC1039360FFF750
:101780001DFF0C4B9B68C3F303130B4AD35CD8407B
:101790000A4B18600A4B1868FFF748FA002070BD22
:1017A000012070470120FAE70120F8E70120F6E761
:1017B000003C024000380240C03F00080C000020FE
:1017C00008000020014B1868704700BF0C00002083
:1017D00008B5FFF7F7FF044B9B68C3F38223034A66
:1017E000D35CD84008BD00BF00380240B83F0008B5
:1017F00008B5FFF7E7FF044B9B68C3F34233034A86
:10180000D35CD84008BD00BF00380240B83F000894
:101810000F2303600B4B9A6802F0030242609A6840
:1018200002F0F00282609A6802F4E052C2609B68A3
:10183000DB0803F4E0530361034B1B6803F0070369
:101840000B60704700380240003C024000230F2B21
:1018500000F2D28070B582B060E085685E0003243B
:10186000B44025EA0405CC68B4402C438460456844
:1018700025EA02054C68C4F300129A402A434260EC
:101880005AE0DC08083450F8246003F007029500A1
:101890000F22AA4026EA020E0A69AA4042EA0E0274
:1018A00040F824205CE0042200E0002202FA0EF25C
:1018B0002A430234514D45F82420514A94686FEA76
:1018C0000C0224EA0C054E6816F4801F01D04CEA85
:1018D00004054B4CA560E46802EA04054E6816F462
:1018E000001F01D04CEA0405454CE560646802EA3B
:1018F00004054E6816F4003F01D04CEA0405404C44
:101900006560246822404D6815F4803F01D04CEAA0
:1019100004023B4C226001330F2B6BD801229A400A
:101920000C6804EA020C32EA0404F4D14C6804F0B6
:101930000304013C012C90D94A6802F00302032AF7
:1019400009D0C4685D000322AA4024EA02048A6820
:10195000AA402243C2604A6802F00302022A90D0E1
:1019600004684FEA430E032202FA0EF224EA02044C
:101970004A6802F0030202FA0EF2224302604A6849
:1019800012F4403FC7D0002201921E4A546C44F426
:1019900080445464526C02F480420192019A9C0883
:1019A000A51C164A52F8255003F003024FEA820E96
:1019B0000F2202FA0EF225EA0205134A90423FF482
:1019C00074AF02F5806290420ED002F580629042C0
:1019D0000CD002F5806290420AD002F580629042FB
:1019E0003FF461AF072261E701225FE702225DE772
:1019F00003225BE702B070BD704700BF00380140B2
:101A0000003C014000380240000002400AB1816100
:101A1000704709048161704770B50446866D00F017
:101A2000D7F894F83530DBB2022B06D080236365FB
:101A3000002384F83430012070BD05462268136805
:101A400023F0160313602268536923F08003536167
:101A5000236CE3B12268136823F008031360226843
:101A6000136823F00103136023681B6813F0010F50
:101A700011D000F0ADF8431B052BF5D92023636589
:101A8000032084F83500002384F83430D4E7A36CB5
:101A9000002BDFD1E3E7E26D3F239340B3600123E6
:101AA00084F83530002084F83400C5E790F83530EC
:101AB000DBB2022B03D0802343650120704705234E
:101AC00080F835300268136823F0010313600020AA
:101AD00070470000074AD36823F4E0631B041B0C23
:101AE000000200F4E060034343F0BF6343F40033BB
:101AF000D360704700ED00E000B5194BDB68C3F31D
:101B00000223C3F1070CBCF1040F28BF4FF0040CF3
:101B100003F1040EBEF1060F18D9033B4FF0FF3E50
:101B20000EFA0CFC21EA0C0199400EFA03F322EAAA
:101B30000303194300280BDB0901C9B200F160401F
:101B400000F5614080F800135DF804FB0023E5E731
:101B500000F00F000901C9B2024B1954F4E700BFAD
:101B600000ED00E014ED00E0002807DB00F01F02AC
:101B7000400901239340024A42F82030704700BFD9
:101B800000E100E008B50B4B1A6842F400721A60DD
:101B90001A6842F480621A601A6842F480721A600D
:101BA0000320FFF797FF0F20FFF740F8FFF71CF81F
:101BB000002008BD003C0240034A1168034B1B781B
:101BC0000B441360704700BFBC03002004000020DA
:101BD000014B1868704700BFBC03002070B4036A53
:101BE00023F001030362036A4668826922F07302EC
:101BF0000C6844EA020523F002028B6813430D4C83
:101C0000A04209D00B4CA0420DD0466085614A68C5
:101C10004263036270BC704723F00803CA68134331
:101C200023F00403EEE726F440764A6932438E69D6
:101C30001643EAE70000014030B4036A23F48073DE
:101C40000362036A4568C26922F073020C6822438A
:101C500023F400738C6843EA04230F4CA04209D09C
:101C60000D4CA0420ED04560C2614A68C263036257
:101C700030BC704723F40063CC6843EA042323F4A8
:101C80008063EDE725F440554C6945EA04158C69FD
:101C900045EA0415E7E700BF0000014030B4036ADD
:101CA00023F480530362036A4468C26922F4E64263
:101CB0000D6842EA052223F400538D6843EA053398
:101CC000074DA84206D04460C2614A6802640362BC
:101CD00030BC704724F480444D6944EA8514F2E72F
:101CE000000001407047000090F83D30DBB2012B4E
:101CF0002FD1022380F83D300268D36843F00103FE
:101D0000D3600368154A934218D0B3F1804F15D0C1
:101D1000A2F57C42934211D002F5806293420DD02D
:101D200002F58062934209D002F59A32934205D0BF
:101D30001A6842F001021A60002070479A6802F0A7
:101D40000702062A07D01A6842F001021A60002032
:101D50007047012070470020704700BF000001401D
:101D6000704770477047704710B5044603681A699A
:101D700012F0020F11D0DA6812F0020F0DD06FF0DE
:101D800002021A610123037703689B6913F0030FB2
:101D900070D0FFF7E6FF0023237723681A6912F05B
:101DA000040F12D0DA6812F0040F0ED06FF00402A4
:101DB0001A610223237723689B6913F4407F5FD065
:101DC0002046FFF7CEFF0023237723681A6912F01D
:101DD000080F12D0DA6812F0080F0ED06FF0080268
:101DE0001A61042323772368DB6913F0030F4ED0B5
:101DF0002046FFF7B6FF0023237723681A6912F005
:101E0000100F12D0DA6812F0100F0ED06FF010021F
:101E10001A61082323772368DB6913F4407F3DD0E0
:101E20002046FFF79EFF0023237723681A6912F0EC
:101E3000010F03D0DA6812F0010F36D123681A6956
:101E400012F0800F03D0DA6812F0800F34D12368CB
:101E50001A6912F0400F03D0DA6812F0400F32D145
:101E600023681A6912F0200F03D0DA6812F0200FED
:101E700030D110BDFFF774FF2046FFF773FF8AE7EC
:101E80002046FFF76DFF2046FFF76CFF9BE72046DB
:101E9000FFF766FF2046FFF765FFACE72046FFF738
:101EA0005FFF2046FFF75EFFBDE76FF001021A619A
:101EB0002046FEF71FFBC1E76FF080021A61204643
:101EC00000F095F9C3E76FF040021A612046FFF772
:101ED0004AFFC5E76FF020021A61204600F086F93C
:101EE000C7E700000368254A90420ED0B0F1804F4A
:101EF0000BD0A2F57C42904207D002F5806290425E
:101F000003D002F58062904203D123F070034A6847
:101F100013431A4A90421AD0B0F1804F17D0A2F55D
:101F20007C42904213D002F5806290420FD002F5BD
:101F3000806290420BD002F59A32904207D002F5AF
:101F40008062904203D002F58062904203D123F474
:101F50004073CA68134323F080034A691343036044
:101F60008B68C3620B688362044B984202D00123E2
:101F7000436170470B690363F9E700BF000001404C
:101F800040B310B5044690F83D30F3B1022384F815
:101F90003D30214651F8040BFFF7A4FF012384F8DC
:101FA000463084F83E3084F83F3084F8403084F87E
:101FB000413084F8423084F8433084F8443084F867
:101FC000453084F83D30002010BD80F83C30FFF7EC
:101FD00089FEDBE70120704740B310B5044690F856
:101FE0003D30F3B1022384F83D30214651F8040B13
:101FF000FFF778FF012384F8463084F83E3084F8F8
:102000003F3084F8403084F8413084F8423084F81E
:10201000433084F8443084F8453084F83D30002063
:1020200010BD80F83C30FEF7D1FCDBE701207047A3
:1020300030B4036A23F010030362036A44688269C0
:1020400022F4E6420D6842EA052223F020038D685F
:1020500043EA05130E4DA84209D00D4DA8420ED0FB
:10206000446082614A688263036230BC704723F037
:102070008003CD6843EA051323F04003EDE724F421
:1020800040644D6944EA85048D6944EA8504E7E7C4
:102090000000014038B590F83C30012B66D0044672
:1020A0000D46012380F83C300C2A5AD8DFE802F0B4
:1020B000075959591B595959305959594400006801
:1020C000FFF78CFD2268936943F00803936122684F
:1020D000936923F0040393612268936929690B4390
:1020E000936100203EE00068FFF7A2FF2268936939
:1020F00043F4006393612268936923F480639361DE
:1021000022689369296943EA01239361002029E049
:102110000068FFF791FD2268D36943F00803D3619B
:102120002268D36923F00403D3612268D369296943
:102130000B43D361002015E00068FFF7AFFD226874
:10214000D36943F40063D3612268D36923F48063C5
:10215000D3612268D369296943EA0123D36100204E
:1021600000E00120002384F83C3038BD0220FCE769
:1021700090F83C30012B35D010B4012380F83C306E
:10218000022380F83D3003685A689C6822F0700C86
:102190000A6842EA0C025A600368134A934212D05A
:1021A000B3F1804F0FD0A2F57C4293420BD002F5E1
:1021B0008062934207D002F58062934203D002F519
:1021C0009A32934204D124F080044A6814439C60FC
:1021D000012380F83D30002380F83C3018465DF83C
:1021E000044B704702207047000001407047704761
:1021F000026802F10C0353E8003F23F490730C32A1
:1022000042E800310029F3D1026802F1140353E8D7
:10221000003F23F00103143242E800310029F3D1DA
:10222000036B012B05D0202380F83E30002303638D
:102230007047026802F10C0353E8003F23F01003DB
:102240000C3242E800310029F3D1ECE790F83D3040
:10225000DBB2212B01D0022070478368B3F5805F89
:1022600017D0036A5A1C02621A7803685A60C38C3A
:102270009BB2013B9BB2C3844BB90268D36823F085
:102280008003D3600268D36843F04003D36000202A
:1022900070470369002BE4D1036A1B880268C3F30B
:1022A00008035360036A02330362E0E738B504466B
:1022B0000268136923F44053C1680B4313618368B8
:1022C0000269134342691343C2691A430168CB6828
:1022D00023F4164323F00C031343CB6002685369C5
:1022E00023F4407381690B4353610368314A93427D
:1022F00006D002F58062934202D0FFF769FA01E04E
:10230000FFF776FAE369B3F5004F29D000210318EF
:1023100049411B1841F10001C90041EA5371DB003A
:10232000181863684FEA83024FEA937341F1000182
:10233000FDF75EFF204DA5FB00325109642303FB2E
:1023400011031B013233A5FB03235B0903F0F002E9
:1023500002EB011203F00F03216813448B6038BDB8
:102360000023021843EB0301121841F10001C900D8
:1023700041EA5271D200101841F1000162689218CE
:102380005B41FDF735FF0C4DA5FB0032510964237D
:1023900003FB1103DB003233A5FB03235B095A0067
:1023A00002F4F87202EB011203F0070321681344F0
:1023B0008B60D4E7001001401F85EB512DE9F843F5
:1023C00005460F4616469946DDF820802C6824689D
:1023D00037EA04030CBF4FF0010C4FF0000CB4457A
:1023E0002DD1B8F1FF3FF1D0B8F1000F05D0FFF7C4
:1023F000EFFBA0EB09004045E8D92A6802F10C0385
:1024000053E8003F23F4D0730C3242E80031002936
:10241000F3D12A6802F1140353E8003F23F00103CB
:10242000143242E800310029F3D1202385F83D30F1
:1024300085F83E30002385F83C30032000E0002082
:10244000BDE8F88358B310B5044690F83D300BB39F
:10245000242384F83D302268D36823F40053D360EA
:102460002046FFF723FF2268136923F4904313618A
:102470002268536923F02A0353612268D36843F426
:102480000053D36000202064202384F83D3084F87A
:102490003E3010BD80F83C30FEF748FBD8E7012005
:1024A00070472DE9F04182B01E4690F83D30DBB216
:1024B000202B54D104460D469046002953D0002AC3
:1024C00053D090F83C30012B51D0012380F83C30A0
:1024D00000230364212380F83D30FFF779FB074692
:1024E000A4F82480A4F82680A368B3F5805F05D003
:1024F0004FF00008002384F83C3012E0236913B148
:102500004FF00008F6E7A8460025F3E738F8023B4D
:102510002268C3F308035360E28C92B2013A92B28C
:10252000E284E38C9BB273B100963B46002280218B
:102530002046FFF743FFE0B9002DE7D015F8012B47
:1025400023685A60E8E700963B4600224021204677
:10255000FFF734FF78B9202384F83D3000E00220F3
:1025600002B0BDE8F0810120FAE70120F8E702207F
:10257000F6E70320F4E70320F2E72DE9F04182B00B
:102580001E4690F83E30DBB2202B5CD104460D464F
:10259000904600295BD0002A5BD090F83C30012B9C
:1025A00059D0012380F83C3000230364222280F8B4
:1025B0003E200363FFF70CFB0746A4F82C80A4F829
:1025C0002E80A368B3F5805F05D04FF0000800238C
:1025D00084F83C3017E0236913B14FF00008F6E7A8
:1025E000A8460025F3E723685B68C3F3080328F8CF
:1025F000023B03E023685B682B700135E28D92B2E9
:10260000013A92B2E285E38D9BB2BBB100963B46A4
:10261000002220212046FFF7D1FEF0B9002DE2D0A4
:10262000A368B3F5805FE5D013B92369002BE1D02F
:1026300023685B6803F07F032B70DEE7202384F8B8
:102640003E30002000E0022002B0BDE8F081012011
:10265000FAE70120F8E70220F6E70320F4E77047E5
:1026600008B50168CA6822F04002CA60202280F8DA
:102670003D20FFF7F4FF002008BD7047704708B504
:10268000806B0023C385C384FFF7F8FF08BD704744
:1026900090F83E30DBB2222B67D18368B3F5805FC0
:1026A0004DD0826AB3F5805F04D0002B54D103690A
:1026B000002B51D103685B681370836A0133836216
:1026C000C38D9BB2013B9BB2C385002B4FD100B59C
:1026D00083B00268D36823F02003D3600268D36814
:1026E00023F48073D3600268536923F001035361BC
:1026F000202380F83E30036B012B33D1002303638A
:10270000026802F10C0353E8003F23F010030C327F
:1027100042E800310029F3D103681A6812F0100F63
:1027200006D0002201921A6801925B680193019B16
:10273000818DFFF7ACFF002003B05DF804FB026958
:10274000002AAED1826A03685B68C3F30803138072
:10275000836A02338362B3E703685B6803F07F0335
:102760001370AAE7FFF789FFE5E702207047002012
:102770007047000030B583B0044602681368D06823
:10278000516913F00F0505D113F0200F02D010F09E
:10279000200F19D12DB111F0010119D110F4907F42
:1027A00016D1216B01297DD013F0800F03D010F0DA
:1027B000800F40F0158113F0400F03D010F0400F50
:1027C00040F0128103B030BD2046FFF761FFF9E70A
:1027D00013F0010F06D010F4807F03D0226C42F07A
:1027E0000102226413F0040F04D019B1226C42F0EC
:1027F0000202226413F0020F04D019B1226C42F0DD
:102800000402226413F0080F07D010F0200F00D14B
:1028100019B1226C42F008022264226C002AD1D045
:1028200013F0200F02D010F0200F29D123685B692C
:1028300003F04003226C12F0080F00D163B320466E
:10284000FFF7D6FC23685B6913F0400F20D02268A5
:1028500002F1140353E8003F23F04003143242E82E
:1028600000310029F3D1A36B73B1614A1A65A06BE3
:10287000FFF71CF90028A5D0A06B036D9847A1E7CE
:102880002046FFF705FFD1E72046FFF7F7FE99E75F
:102890002046FFF7F3FE95E72046FFF7EFFE002303
:1028A00023648FE713F0100F3FF47EAF10F0100F8A
:1028B0003FF47AAF002301931368019353680193A7
:1028C000019B536913F0400F50D0A26B13685B68F3
:1028D0009BB2002B3FF476AFA18D99427FF672AF89
:1028E000E385D369B3F5807F37D0226802F10C030A
:1028F00053E8003F23F480730C3242E80031002992
:10290000F3D1226802F1140353E8003F23F00103DE
:10291000143242E800310029F3D1226802F1140395
:1029200053E8003F23F04003143242E8003100290D
:10293000F3D1202384F83E3000232363226802F180
:102940000C0353E8003F23F010030C3242E800313F
:102950000029F3D1A06BFFF75FF8A18DE38D9BB247
:10296000C91A89B22046FFF792FE2BE7A18DE38DAD
:102970009BB2C91A89B2E38D9BB2002B3FF422AF00
:1029800000293FF41FAF226802F10C0353E8003F17
:1029900023F490730C3242E800300028F3D122680F
:1029A00002F1140353E8003F23F00103143242E81C
:1029B00000300028F3D1202384F83E300023236325
:1029C000226802F10C0353E8003F23F010030C329D
:1029D00042E800300028F3D12046FFF758FEF1E628
:1029E0002046FFF733FCEDE62046FFF739FEE9E627
:1029F0007F260008034AD2F8883043F47003C2F8F7
:102A00008830704700ED00E000F1080343604FF0AC
:102A1000FF328260C36003610023036070470023BC
:102A20000361704743684B609A688A60516099609F
:102A30000861036801330360704730B40D68B5F175
:102A4000FF3F11D000F108031C465B681A68AA42D8
:102A5000FAD963684B6099608C60616008610368B3
:102A60000133036030BC70470469F2E703694168D1
:102A700082688A60416851605A68824206D00022AA
:102A800002611A68013A1A601868704782685A60D1
:102A9000F5E710B5044601F0CDF8A26BE36B9A425E
:102AA00004D0002401F0E8F8204610BD0124F9E725
:102AB00070B504461546866B026C5AB903681BB1A3
:102AC00000200136A66370BD806800F065FE00231B
:102AD000A360F6E76DB9406801F020FA226C6368E4
:102AE00013446360A268934219D323686360284645
:102AF000E7E7C06801F012FA226C5142E3689B1AC2
:102B0000E3602268934202D2A3680B44E360022D83
:102B100001D00020D5E726B1013E0020D1E72846AC
:102B2000CFE70020CDE738B5054601F083F895F8EA
:102B3000454064B201E0013C64B2002C0ADD6B6ADE
:102B400043B105F1240000F07DFD0028F3D000F032
:102B50000DFEF0E7FF2385F8453001F08DF801F018
:102B600069F895F8444064B201E0013C64B2002C7D
:102B70000ADD2B6943B105F1100000F063FD002868
:102B8000F3D000F0F3FDF0E7FF2385F8443001F0C7
:102B900073F838BD38B5E0B10D46044601F04AF887
:102BA0002368E26B216C01FB0230A0600020A0636F
:102BB0006360013A02FB0133E360FF2384F8443091
:102BC00084F84530FDB9236963B901F055F8012057
:102BD00038BD4FF0500383F31188BFF36F8FBFF3FD
:102BE0004F8FFEE704F1100000F02CFD0028ECD020
:102BF0004FF0E0234FF08052C3F8042DBFF34F8F06
:102C0000BFF36F8FE1E704F11000FFF7FDFE04F161
:102C10002400FFF7F9FED8E710B5034602980C46EA
:102C200031B90060C36304640121FFF7B3FF10BD35
:102C30000260F7E740B94FF0500383F31188BFF308
:102C40006F8FBFF34F8FFEE710B584B01C468446EC
:102C500053B192B189B94FF0500383F31188BFF398
:102C60006F8FBFF34F8FFEE74FF0500383F3118850
:102C7000BFF36F8FBFF34F8FFEE76AB14823039313
:102C8000039B482B13D04FF0500383F31188BFF3FD
:102C90006F8FBFF34F8FFEE70029EFD04FF0500347
:102CA00083F31188BFF36F8FBFF34F8FFEE7039B52
:102CB000012384F8463000949DF818306046FFF7F1
:102CC000ABFF204604B010BD40B94FF0500383F372
:102CD0001188BFF36F8FBFF34F8FFEE7F0B583B05E
:102CE0000D461446064601FB00F0483000F07EFE1B
:102CF000074650B1002380F846300090234600F18B
:102D0000480229463046FFF787FF384603B0F0BD3A
:102D1000F0B585B0019288B10F461D460446B1B1A9
:102D2000022D20D1E36B012B1DD04FF0500383F314
:102D30001188BFF36F8FBFF34F8FFEE74FF0500343
:102D400083F31188BFF36F8FBFF34F8FFEE7036CE0
:102D5000002BE5D04FF0500383F31188BFF36F8F42
:102D6000BFF34F8FFEE700F007FD064658B9019B01
:102D7000002B48D04FF0500383F31188BFF36F8FBF
:102D8000BFF34F8FFEE700263DE02A463946204636
:102D9000FFF78EFE636A7BB948B14FF0E0234FF036
:102DA0008052C3F8042DBFF34F8FBFF36F8F00F035
:102DB00063FF012005B0F0BD04F1240000F042FCE7
:102DC0000028F4D04FF0E0234FF08052C3F8042DD8
:102DD000BFF34F8FBFF36F8FE9E700F04DFF002087
:102DE000E8E702A800F074FC012619E0002384F84B
:102DF000443021E0002384F8453023E02046FFF7EB
:102E000092FE00F019FB00F015FFA26BE36B9A42F3
:102E1000BBD3022DB9D0019B002BDED0002EE0D019
:102E200000F02AFF00F074FA00F004FF94F8442048
:102E300052B2B2F1FF3FD9D094F8452052B2B2F16C
:102E4000FF3FD7D000F018FF01A902A800F04CFC0A
:102E5000D8B92046FFF71DFE0028CFD0019904F114
:102E6000100000F0D7FB2046FFF75DFE00F0E4FA0B
:102E70000028C8D14FF0E0234FF08052C3F8042D52
:102E8000BFF34F8FBFF36F8FBDE72046FFF74BFEB9
:102E900000F0D2FA00208DE7084B1B681B6823B9AD
:102EA000074B4FF0FF321A607047044B1B68DB681A
:102EB000DB685A68024B1A60704700BFC4030020E9
:102EC000980400202DE9F04707469846089DDDF854
:102ED00024900A9C266B02F18042013A06EB82069E
:102EE00026F0070600293AD08E464FF0000CBCF1C0
:102EF0000F0F0BD81EF80C2004EB0C0383F83420C2
:102F00001EF80C3013B10CF1010CF0E7002384F82B
:102F10004330062D00D90625E56265644FF0000AAE
:102F2000C4F848A0201DFFF77AFD04F11800FFF750
:102F300076FD2461C5F10705A5616462C4F84CA063
:102F400084F850A042463946304600F049FE2060E1
:102F5000B9F1000F01D0C9F80040BDE8F0870023A7
:102F600084F83430D5E7000038B5002407E004EBDE
:102F7000840293000E481844FFF746FD0134062CE6
:102F8000F5D90C4D2846FFF73FFD0B4C2046FFF7C7
:102F90003BFD0A48FFF738FD0948FFF735FD0948B2
:102FA000FFF732FD084B1D60084B1C6038BD00BFA9
:102FB000CC0300206C04002080040020A404002026
:102FC000D0040020BC040020C4030020C80300205B
:102FD00010B5044600F02EFE214A13680133136039
:102FE000204B1B685BB1204B1B686BB91D4B1B68EA
:102FF000DA6AE36A9A4207D81A4B1C6004E0194B5C
:103000001C601368012B28D0184A13680133136021
:10301000E06A01238340164A11680B43136000EBFA
:103020008000211D134B03EB8000FFF7FBFC00F039
:1030300023FE0D4B1B687BB10A4B1B68DA6AE36AFF
:103040009A4209D24FF0E0234FF08052C3F8042D8A
:10305000BFF34F8FBFF36F8F10BDFFF785FFD3E72F
:1030600058040020C0030020B8040020640400209D
:1030700068040020CC03002010B5044690F85130BD
:1030800063B1012B11D0022B0ED04FF0500383F30C
:103090001188BFF36F8FBFF34F8FFEE7006B00F017
:1030A00023FD204600F020FD10BD00F01DFDFBE7D4
:1030B0000F4B1B68D3B110B500F0BCFD0D4BDB68A6
:1030C000DC68201DFFF7D2FC0B4A1368013B13603C
:1030D000074A1368013B136000F0CEFD2046FFF75E
:1030E000CBFF034B1B68002BE6D110BD704700BF20
:1030F0005C040020D00400205804002008B5FFF72D
:10310000D7FF074B1B68012BF9D94FF0E0234FF095
:103110008052C3F8042DBFF34F8FBFF36F8FEEE7DC
:10312000CC03002070B504460D461D4B1E681D4B98
:1031300018680430FFF79AFC50B91A4B1B68DA6A1A
:10314000012303FA02F218490B6823EA02030B6019
:10315000B4F1FF3F0DD03444124B1B685C60A642B3
:1031600010D9124B18680F4B19680431FFF765FC32
:1031700070BD002DEFD00B4B196804310C48FFF7E0
:1031800051FCF5E70B4B1868064B19680431FFF743
:1031900054FC094B1B68A342EAD9074B1C60E7E7C4
:1031A000E4040020C003002068040020C8030020BD
:1031B000BC040020C40300209804002030B587B070
:1031C0000B9C7CB10C9DB5B154250495049D542DE8
:1031D0001AD04FF0500383F31188BFF36F8FBFF302
:1031E0004F8FFEE74FF0500383F31188BFF36F8FCB
:1031F000BFF34F8FFEE74FF0500383F31188BFF307
:103200006F8FBFF34F8FFEE7049D0C9D2C6302244C
:1032100085F8514000240394029505AC01940A9C62
:103220000094FFF74FFE0C98FFF7D2FE059807B009
:1032300030BD2DE9F04385B00746884614461E464A
:10324000900000F0D3FB00B38146542000F0CEFB89
:103250000546B0B1C0F83090E5B1002385F8513093
:10326000039302950D9B01930C9B009333462246DA
:1032700041463846FFF726FE2846FFF7A9FE012003
:1032800005E0484600F030FCE6E74FF0FF3005B0BF
:10329000BDE8F0834FF0FF30F9E7000010B588B0CB
:1032A00000240594069407AA06A905A8FDF75AFA72
:1032B000059B0293069B019300942346079A0E49AF
:1032C0000E48FFF77BFF0E4B186090B14FF0500394
:1032D00083F31188BFF36F8FBFF34F8F094B4FF00C
:1032E000FF321A60084B01221A60084B1C6000F084
:1032F0003BFD08B010BD00BFD03F0008FD30000806
:103300009404002098040020B8040020E404002065
:10331000024A136801331360704700BF6004002045
:10332000F8B53A4B1B68002B69D1394B1D68013544
:103330001D60C5B9374B1B681B6843B14FF0500384
:1033400083F31188BFF36F8FBFF34F8FFEE7314ACE
:103350001168314B186810601960304A13680133E6
:103360001360FFF799FD2E4B1B68AB423DD9002738
:103370002C4B1B68DB6A03EB83039A002A4B9B5898
:10338000012B00D90127294B1B68002B3CD00127BA
:103390003AE001271F4B1B681B6843B31D4B1B689A
:1033A000DB68DC6863689D4226D3261D3046FFF744
:1033B0005DFBA36A1BB104F11800FFF757FBE36A3A
:1033C00001229A401A49086802430A6003EB83030A
:1033D0009A00314614481044FFF724FBE26A114B6F
:1033E0001B68DB6A9A42D4D2D4E70027D2E70C4BA1
:1033F0004FF0FF321A60BBE7094A1360B8E70D4A85
:1034000013680133136000273846F8BD60040020BC
:10341000E4040020C4030020C80300209C04002012
:1034200098040020C0030020CC030020E804002002
:1034300068040020A004002038B5354B1B6843B950
:103440004FF0500383F31188BFF36F8FBFF34F8F9B
:10345000FEE700F0EFFB2E4B1A68013A1A601B687A
:10346000002B4FD12B4B1B680BB900244BE00024E1
:10347000294B1B681BB3284BDB68DC6804F1180080
:10348000FFF7F4FA251D2846FFF7F0FAE06A01235A
:103490008340224A11680B43136000EB80002946E9
:1034A0001F4B03EB8000FFF7BDFAE26A1D4B1B6860
:1034B000DB6A9A42DCD31C4B01221A60D8E70CB1BC
:1034C000FFF7EAFC194B1C6884B9174B1C68D4B190
:1034D0004FF0E0234FF08052C3F8042DBFF34F8F1D
:1034E000BFF36F8F01240EE0013C07D0FFF718FFF8
:1034F0000028F9D00C4B01221A60F5E70B4B002293
:103500001A60E2E7002400F0B7FB204638BD00BF98
:103510006004002058040020A40400206804002057
:10352000CC030020C0030020E8040020A0040020F9
:1035300010B5A8B10446104B1B6843B14FF05003BF
:1035400083F31188BFF36F8FBFF34F8FFEE7FFF751
:10355000DFFE00212046FFF7E5FDFFF76DFF48B9CC
:103560004FF0E0234FF08052C3F8042DBFF34F8F8C
:10357000BFF36F8F10BD00BF60040020204B1B689D
:103580001BB1204B01221A6070471E4B00221A60AB
:103590001D4B1B68B3FA83F3DBB2C3F11F0303EBCC
:1035A00083018A0019498A5842B94FF0500383F3C6
:1035B0001188BFF36F8FBFF34F8FFEE7134903EB03
:1035C000830082000A4450684068506003EB830C1B
:1035D0004FEA8C0208321144884209D003EB83037E
:1035E0009A000A4B13445B68DA68094B1A6070470B
:1035F000406862469100054A0A445060EEE700BF09
:1036000060040020E804002068040020CC030020AF
:10361000C003002058B110B50C46094A1168183192
:10362000FFF70BFA01212046FFF77CFD10BD4FF09C
:10363000500383F31188BFF36F8FBFF34F8FFEE703
:10364000C003002038B5C368DC6824B304F1180552
:103650002846FFF70BFA184B1B682BBB251D284685
:10366000FFF704FAE06A01238340144A11680B4310
:10367000136000EB80002946114B03EB8000FFF73D
:10368000D1F9E26A0F4B1B68DB6A9A4211D901201B
:103690000D4B186038BD4FF0500383F31188BFF312
:1036A0006F8FBFF34F8FFEE729460848FFF7BAF93F
:1036B000E7E70020EEE700BF600400206804002078
:1036C000CC030020C0030020E8040020A404002054
:1036D000034B1B680360034B1B684360704700BFCC
:1036E0009C040020E4040020F8B5C8B10C4605464F
:1036F000F9B100F09FFA1B4B19686B68C81A226871
:10370000B2F1FF3F26D0184E36682F68B74201D07D
:103710008B4224D9824215D80023236001241AE069
:103720004FF0500383F31188BFF36F8FBFF34F8FB8
:10373000FEE74FF0500383F31188BFF36F8FBFF3A1
:103740004F8FFEE75B1A134423602846FFF7C0FF44
:10375000002400E0002400F08FFA2046F8BD012488
:10376000F9E700BFE40400209C040020014B012283
:103770001A607047E8040020054B1B6833B1054B05
:103780001B680BB100207047022070470120704772
:10379000B80400206004002000284CD038B504464E
:1037A000274B1B68834208D04FF0500383F31188E6
:1037B000BFF36F8FBFF34F8FFEE7836C43B94FF0BA
:1037C000500383F31188BFF36F8FBFF34F8FFEE772
:1037D000013B8364C16A426C91422ED00BB1002040
:1037E00038BD051D2846FFF741F970B9E26A02EBC2
:1037F00082039B001349CB583BB9012303FA02F221
:1038000011490B6823EA02030B60606CE062C0F1AF
:103810000703A361012404FA00F30B4A11680B4368
:10382000136000EB80002946064B03EB8000FFF796
:10383000F9F82046D4E7002070470020D0E700BF09
:10384000C0030020CC03002068040020842801D09D
:10385000033070470020704708B5FFF71FFD0020B8
:1038600008BD2DE9F04387B004460F464569BDB158
:103870008669AEB1D0F80480D0F80090B0F90800A5
:10388000FFF7E4FF0296019500903B462269494606
:103890004046FFF793FC0590059807B0BDE8F0831C
:1038A00065682668D4F81080B4F90800FFF7CEFFE9
:1038B00005AB019300903B461FFA88F2314628463B
:1038C000FFF7B7FC0128E7D00020E6E708B500B90C
:1038D0000120FFF72DFE002008BD10B582B044681E
:1038E0007CB1012903D00024204602B010BD03237F
:1038F00000932346002211460120FFF79BF904465E
:10390000F2E70129F0D1032200210120FFF7DCF9C1
:1039100004460028E8D000231A461946FFF7F8F9B4
:10392000E2E70000124A12F0070F1ED0D11D21F06D
:103930000701C1F5705313440A460E480260002186
:1039400041601344083B23F007030B4803605960B0
:103950001960991A51601360084B1960084B19607F
:10396000084B4FF000421A6070474FF47053E4E781
:10397000F004002004410020EC040020F840002066
:10398000F4400020F0400020164B1A461B6883428A
:10399000FBD3516802EB010C844509D0416800EB70
:1039A000010C634509D00360904219D01060704744
:1039B0004068014451601046F0E710B40A4C246896
:1039C000A3420BD05B681944416013681B68036015
:1039D000904200D010605DF8044B70470460F7E738
:1039E000704700BF04410020EC04002070B505467C
:1039F000FFF78EFC364B1B68A3B1364B1B681D428C
:103A00004ED135B1083515F0070F02D025F0070566
:103A10000835002D46D0304B1B68AB4251D32F4A9E
:103A2000146804E0FFF77EFFE7E722461C46636860
:103A3000AB4202D22368002BF7D1254B1B68A3426F
:103A400041D0166808362368136063685B1B102B2F
:103A500010D9601910F0070F08D04FF0500383F30E
:103A60001188BFF36F8FBFF34F8FFEE74360656030
:103A7000FFF78AFF626818490B689B1A0B601849A8
:103A800009688B4201D216490B60124B1B68134325
:103A9000636000232360134A13680133136002E05C
:103AA000002600E00026FFF7C7FC16F0070F0CD039
:103AB0004FF0500383F31188BFF36F8FBFF34F8F25
:103AC000FEE70026EFE70026EDE7304670BD00BFB9
:103AD000EC040020F0400020F440002004410020CD
:103AE000F8400020FC400020002834D038B50446BF
:103AF000A0F1080550F8043C174A1268134208D197
:103B00004FF0500383F31188BFF36F8FBFF34F8FD4
:103B1000FEE750F8081C41B14FF0500383F31188C1
:103B2000BFF36F8FBFF34F8FFEE723EA020340F826
:103B3000043CFFF7EDFB54F8041C084A13680B44DF
:103B400013602846FFF720FF054A1368013313600E
:103B5000FFF772FC38BD7047F0400020F4400020B1
:103B60000041002082B0002301930D4B1B68B3F18C
:103B7000FF3F08D04FF0500383F31188BFF36F8FDE
:103B8000BFF34F8FFEE74FF0500383F31188BFF36D
:103B90006F8FBFF34F8F019B002BFCD002B070479B
:103BA0001000002008480068006880F308884FF083
:103BB000000080F3148862B661B6BFF34F8FBFF385
:103BC0006F8F00DF00BF000008ED00E0DFF80C00A1
:103BD000016841F4700101607047000088ED00E069
:103BE0004FF0807340F8043C21F0010140F8081CBC
:103BF000054B40F80C3C40F8202C6FF0020340F8D5
:103C0000243C4438704700BF653B000800000000BA
:103C1000074B19680868B0E8F04F80F30988BFF3D4
:103C20006F8F4FF0000080F311887047AFF3008072
:103C3000C00300204FF0500383F31188BFF36F8F50
:103C4000BFF34F8F0B4A136801331360012B00D071
:103C500070474FF0E023D3F8043D13F0FF0FF7D087
:103C60004FF0500383F31188BFF36F8FBFF34F8F73
:103C7000FEE700BF10000020094B1B6843B94FF05E
:103C8000500383F31188BFF36F8FBFF34F8FFEE7AD
:103C9000013B034A13600BB983F31188704700BFDF
:103CA00010000020000000000000000000000000E4
:103CB000EFF30980BFF36F8F154B1A681EF0100FDA
:103CC00008BF20ED108A20E9F04F10602DE90900AF
:103CD0004FF0500080F31188BFF34F8FBFF36F8F09
:103CE000FFF74CFC4FF0000080F3118809BC196805
:103CF0000868B0E8F04F1EF0100F08BFB0EC108A53
:103D000080F30988BFF36F8F704700BFAFF3008067
:103D1000C003002008B54FF0500383F31188BFF3B0
:103D20006F8FBFF34F8FFFF7FBFA28B14FF0E023FF
:103D30004FF08052C3F8042D002383F3118808BD8F
:103D40004FF0E022002313619361054B1B68054986
:103D5000A1FB03139B09013B5361072313617047C8
:103D60000C000020D34D62104FF0E023D3F8002D5B
:103D70003D4B9A421CD04FF0E023D3F8002D3B4B33
:103D80009A421ED030B583B0394B1A78D2B2019224
:103D9000FF221A701B78DBB28DF803309DF80330D8
:103DA00003F05003334A1370334B07221A601BE0B1
:103DB0004FF0500383F31188BFF36F8FBFF34F8F22
:103DC000FEE74FF0500383F31188BFF36F8FBFF30B
:103DD0004F8FFEE7284A1368013B13609DF80330BC
:103DE0005B00DBB28DF803309DF8033013F0800FD9
:103DF000F0D1214B1B68032B08D04FF0500383F305
:103E00001188BFF36F8FBFF34F8FFEE71B021A4A73
:103E1000136003F4E0631360019BDBB2144A137078
:103E20004FF0E024D4F8203D43F47003C4F8203D63
:103E3000D4F8203D43F07043C4F8203DFFF780FFE5
:103E400000250E4B1D60FFF7C1FED4F8343F43F050
:103E50004043C4F8343FFFF7A5FEFFF78FFBFFF7A1
:103E600081FE284603B030BD71C20F4170C20F41C0
:103E700000E400E00C410020104100201000002070
:103E8000DFF834D00D480E490E4A002302E0D45822
:103E9000C4500433C4188C42F9D30B4A0B4C002392
:103EA00001E013600432A242FBD3FEF7A3FD00F051
:103EB00011F8FCF771FB70470000022000000020A1
:103EC00014000020E83F00081400002014410020E6
:103ED000FEE7000070B50D4D0D4C641BA4100026CC
:103EE000A64209D10B4D0C4C00F02EF8641BA41017
:103EF0000026A64205D170BD55F8043B984701360F
:103F0000EEE755F8043B98470136F2E7E03F00083A
:103F1000E03F0008E03F0008E43F00080A44914207
:103F200000F1FF3300D1704710B511F8014B03F8D1
:103F3000014F9142F9D110BD02440346934200D192
:103F4000704703F8011BF9E7F8B500BFF8BC08BCDF
:103F50009E467047F8B500BFF8BC08BC9E46704747
:103F6000983F000801070008000000000000000062
:103F7000000400000000000000000000A43F000852
:103F80005D070008000000000000000000040000C1
:103F900000000000000000006472697665546173DF
:103FA0006B000000636F6D6D5461736B0000000067
:103FB0007465737400000000000000000102030437
:103FC00000000000000000000102030406070809C9
:083FD00049444C4500000000CB
:083FD80048C2FF7F0100000058
:043FE000C50100080F
:043FE400A10100082F
:103FE800B03F000801000000100000000024F400A9
:043FF800AAAAAAAA1D
:0400000508003E8130
:00000001FF
