:020000040800F2
:1000000000000220613200089508000897080008E7
:10001000990800089B0800089D08000800000000DF
:10002000000000000000000000000000F12F0008A8
:100030009F0800080000000091300008F53000081B
:10004000B1320008B1320008B1320008B132000804
:10005000B1320008B1320008B1320008B1320008F4
:10006000B1320008B1320008B1320008B1320008E4
:10007000B1320008B1320008B1320008B1320008D4
:10008000B1320008B1320008B132000800000000AF
:10009000000000000000000000000000B132000875
:1000A000B1320008A1080008B1320008B1320008DE
:1000B000B1320008B1320008B1080008B1320008BE
:1000C000B1320008B1320008B1320008B132000884
:1000D000B1320008B1320008B1320008000000005F
:1000E000B1320008B1320008B1320008000000004F
:1000F000000000000000000000000000B132000815
:1001000000000000B1320008B1320008B13200082E
:1001100000000000000000000000000000000000DF
:10012000B1320008B1320008B1320008B132000823
:10013000B1320008000000000000000000000000D4
:10014000000000000000000000000000B1320008C4
:10015000B1320008B1320008B1320008B1320008F3
:10016000B1320008B13200080000000000000000B9
:10017000000000000000000000000000000000007F
:1001800000000000B1320008000000000000000084
:08019000B1320008B132000891
:1001A00053B94AB9002908BF00281CBF4FF0FF31DE
:1001B0004FF0FF3000F00CB8ADF1080C6DE904CE43
:1001C00003F0B2F8DDF804E0DDE9022304B0704783
:1001D000704700BF0348044B834202D0034B03B176
:1001E0001847704710000020100000200000000099
:1001F0000548064B1B1AD90F01EBA301491002D089
:10020000034B03B118477047100000201000002076
:100210000000000010B5064C237843B9FFF7DAFF61
:10022000044B13B10448AFF300800123237010BDC9
:100230001000002000000000E435000808B5054B60
:100240001BB105490548AFF30080BDE80840FFF742
:10025000CFBF00BF0000000014000020E4350008FC
:1002600008B50268034B9A4200D008BD01F0F0F9CE
:10027000FBE700BF0044014072B6FEE700B595B051
:100280003022002108A803F014F8002303930493FC
:100290000593069307930193184A116C41F080511E
:1002A0001164126C02F080520192019A0293144A76
:1002B000116841F440411160126802F44042029218
:1002C000029A012208924FF4803209920E9308A8F4
:1002D00000F0FEFC70B90F23039301230493002167
:1002E00005910691079103A800F056FF20B915B0BB
:1002F0005DF804FBFFF7C0FFFFF7BEFF00380240C8
:100300000070004008B501F089F9FFF7B7FF00F071
:100310000BF800F0E7F800F021FA00F069FA00F0BD
:10032000A9F802F087FCFEE72DE9F0418AB000242D
:100330000594069407940894099401942F4B1A6B22
:1003400042F004021A631A6B02F004020192019A4D
:1003500002941A6B42F080021A631A6B02F0800258
:100360000292029A03941A6B42F001021A631A6B0A
:1003700002F001020392039A04941A6B42F0020203
:100380001A631B6B03F002030493049BDFF878806D
:1003900022464FF40051404601F0D6F8184F22464D
:1003A0004FF40041384601F0CFF8164E22464FF484
:1003B0009C71304601F0C8F84FF4005305930125B5
:1003C00006950795089405A9404600F0D9FF4FF41B
:1003D0000043059306950794089405A9384600F054
:1003E000CFFF4FF49C73059306950794089405A9D5
:1003F000304600F0C5FF0AB0BDE8F0810038024089
:1004000000000240000402400008024008B54FF41A
:100410007A7002F047FC00224FF40051034801F0CB
:1004200093F84FF4FA6002F03DFCF0E70008024058
:1004300008B5FFF7EBFF000008B501224FF40051AB
:10044000034801F081F84FF4FA6002F02BFCF4E766
:100450000008024008B5FFF7EFFF0000034B036000
:10046000034B0B6080231360704700BF2C020020F9
:100470002C00002030B591B000250E950F9501217C
:100480000EA802F016FC134B1860134C0DF11C0C57
:10049000A646BEE80F00ACE80F009EE807008CE817
:1004A0000700294607A802F0CAFB0C4B1860EE466D
:1004B00004F11C0CBCE80F00AEE80F009CE807003C
:1004C0008EE807002946684602F0B9FB044B186025
:1004D00011B030BD80020020FC35000888020020E9
:1004E0008402002000B585B000230093019302939D
:1004F00003934E484E4A02604360836001220261CA
:10050000037680F82030C3624A498162C3600A21C1
:10051000C16180F83030426100F0D8FA002864D11F
:1005200000230093012301930523029369463F486A
:1005300000F0F8FA00285BD1012300930223019315
:1005400069463A4800F0EEFA002854D1022300939D
:10055000032301936946354800F0E4FA00284DD1A1
:1005600003230093042301936946304800F0DAFA2C
:10057000002846D1042300930523019369462B48A4
:1005800000F0D0FA00283FD1052300930623019301
:100590006946264800F0C6FA002838D106230093A1
:1005A000072301936946214800F0BCFA90BB07235A
:1005B00000930823019369461C4800F0B3FA60BB1E
:1005C00008230093092301936946184800F0AAFA0A
:1005D00030BB092300930A2301936946134800F0B6
:1005E000A1FA00BB05B05DF804FBFFF745FE97E7F5
:1005F000FFF742FEA0E7FFF73FFEA7E7FFF73CFE4D
:10060000AEE7FFF739FEB5E7FFF736FEBCE7FFF7C9
:1006100033FEC3E7FFF730FEC9E7FFF72DFECFE754
:10062000FFF72AFED5E7FFF727FEDBE78C02002065
:10063000002001400100000F30B589B00023039372
:100640000493059306930793026803F1804303F52F
:1006500090339A4201D009B030BD0024009403F5D4
:100660008C335A6C42F480725A645A6C02F4807271
:100670000092009A01941A6B42F001021A631A6BFD
:1006800002F001020192019A02941A6B42F00202F6
:100690001A631B6B03F002030293029BFF23039375
:1006A0000325049503A9054800F06AFE0395049507
:1006B000059403A9024800F063FECCE70000024065
:1006C0000004024002680E4B9A4200D0704700B509
:1006D00083B00022019203F50C33196C41F0040140
:1006E00019641B6C03F004030193019B0A211E2073
:1006F00000F076FF1E2000F083FF03B05DF804FBDE
:100700000008004000B587B00023019302930393D3
:100710000493059302680E4B9A4202D007B05DF82D
:1007200004FB002300930B4B1A6B42F002021A6386
:100730001B6B03F002030093009BC0230193022371
:100740000293059301A9044800F01AFEE6E700BFF2
:1007500000080040003802400004024000B58BB0A1
:100760000023089309930193029303930493059341
:10077000069307931C481D4A02600F224260836063
:100780001322C26003618023836101F069F9F8B923
:1007900000230893099308A9134801F029FAD0B956
:1007A00060230193002202920392059201A90E4850
:1007B00001F0B0F990B904220DEB02010A4801F0F2
:1007C000A9F970B90848FFF79DFF0BB05DF804FB6D
:1007D000FFF752FDDCE7FFF74FFDE1E7FFF74CFDC8
:1007E000E9E7FFF749FDEDE7D402002000080040EB
:1007F00008B50A480A4B03604FF4E1334360002315
:100800008360C36003610C2242618361C36101F0B4
:10081000B7FA00B908BDFFF72FFDFBE71C03002066
:100820000014014000B589B000230393049305939D
:10083000069307930268154B9A4202D009B05DF8FF
:1008400004FB0021019103F592335A6C42F020021F
:100850005A645A6C02F020020192019A02911A6BBA
:1008600042F001021A631B6B03F001030293029B27
:100870004FF4C053039302230493032306930823E6
:10088000079303A9024800F07BFDD7E7001401405D
:1008900000000240FEE7FEE7FEE7FEE7FEE77047E6
:1008A00008B5024800F0A4FF08BD00BF60030020A7
:1008B00008B5024800F09CFF08BD00BFD40200202C
:1008C00000B583B0002200920D4B596C41F4804179
:1008D0005964596C01F48041009100990192196C9E
:1008E00041F0805119641B6C03F080530193019B0C
:1008F0000F216FF0010000F073FE03B05DF804FB00
:100900000038024030B589B00546002401941D4BE3
:100910005A6C42F400325A645B6C03F40033019366
:10092000019B02A903A800F00DFD00F0FBFC164A94
:10093000A2FB00239B0C013B1448154A026040F2C5
:10094000E732C260436004618460846101F05CF856
:10095000044610B1204609B030BD0C4800F008FF35
:1009600004460028F6D1192000F04AFE0F2D01D9C7
:100970000124EFE700222946192000F031FE054B43
:100980001D60E7E70038024083DE1B436003002060
:1009900000440140040000204A4B5A6822F44032CF
:1009A0005A605A6841680A435A600268536823F4DF
:1009B0008073536002685368016943EA01235360FE
:1009C0000268536823F0407353600268536881687B
:1009D0000B4353600268936823F4006393600268DA
:1009E0009368C1680B439360826A374B9A4257D031
:1009F0000268936823F07063936002689368816A69
:100A00000B4393600268936823F04053936002683D
:100A10009368C16A0B4393600268936823F00203F2
:100A2000936002689368017E43EA4103936090F803
:100A30002030002B3FD00268536843F400635360BA
:100A40000268536823F46043536001684B68426A4C
:100A5000013A43EA42334B600268D36A23F47003DD
:100A6000D3620168CB6AC269013A43EA0253CB629E
:100A70000268936823F4007393600268936890F8A7
:100A8000301043EA412393600268936823F4806343
:100A9000936002689368416943EA812393607047D9
:100AA0000268936823F0706393600268936823F090
:100AB00040539360B0E70268536823F400635360C7
:100AC000CAE700BF002301400100000F38B310B592
:100AD0000446036C43B1236C13F0100F0BD00120BC
:100AE000002384F83C3010BDFFF7A6FD00236364AB
:100AF00084F83C30EFE7236C23F4885323F002039F
:100B000043F0020323642046FFF746FF00206064A1
:100B1000236C23F0030343F001032364E0E7012087
:100B20007047000030B482B00022019290F83C205F
:100B3000012A00F0C0800346012280F83C200A68A8
:100B4000092A40D90468E06892B202EB42021E3AD8
:100B50004FF0070C0CFA02F220EA0202E2601C6875
:100B6000E0680A8802EB42021E3A8D6805FA02F23A
:100B70000243E2604A68062A3CD81C68606B02EBBC
:100B80008202053A4FF01F0C0CFA02F220EA020230
:100B900062631C68606B4A6802EB8202053AB1F836
:100BA00000C00CFA02F2024362631868434A9042A2
:100BB00050D01868414A904259D0002083F83C0038
:100BC00002B030BC70470468206992B202EB420266
:100BD0004FF0070C0CFA02F220EA020222611C68B4
:100BE00020690A8802EB42028D6805FA02F202438C
:100BF0002261BFE70C2A16D81D68286B02EB82021F
:100C0000233A1F2404FA02F220EA02022A631D6832
:100C1000286B4A6802EB8202233A0C8804FA02F23B
:100C200002432A63C1E71D68E86A02EB8202413A87
:100C30001F2404FA02F220EA0202EA621D68E86A4E
:100C40004A6802EB8202413A0C8804FA02F202433B
:100C5000EA62AAE70A68122AABD1194A506820F45E
:100C600000005060506840F480005060A1E70A68BE
:100C70001448824201D0112A9FD1114A506820F4B1
:100C800080005060506840F40000506009680D4AD0
:100C9000914292D10C4A12680C49A1FB0212920CAB
:100CA00002EB820252000192019A002A85D0019A39
:100CB000013A0192F8E7022082E700BF00200140DC
:100CC00000230140120000100800002083DE1B43B7
:100CD000002800F0E08170B582B00446036813F08C
:100CE000010F3BD09F4B9B6803F00C03042B2CD0CF
:100CF0009C4B9B6803F00C03082B21D06368B3F571
:100D0000803F4FD0B3F5A02F52D0964B1A6822F4F3
:100D100080321A601A6822F480221A606368002BFD
:100D200050D000F0A1FC05468E4B1B6813F4003F29
:100D300014D100F099FC401B6428F5D90320B1E1DF
:100D4000884B5B6813F4800FD8D0864B1B6813F474
:100D5000003F03D06368002B00F09F81236813F0ED
:100D6000020F54D07F4B9B6813F00C0F3ED07D4B8D
:100D70009B6803F00C03082B33D0E368002B68D08A
:100D8000794B01221A6000F06FFC0546754B1B6819
:100D900013F0020F54D100F067FC401B0228F5D974
:100DA00003207FE16F4A136843F480331360B5E793
:100DB0006C4B1A6842F480221A601A6842F480323E
:100DC0001A60ABE700F050FC0546664B1B6813F455
:100DD000003FC3D000F048FC401B6428F5D9032035
:100DE00060E1604B5B6813F4800FC6D15D4B1B68FC
:100DF00013F0020F03D0E368012B40F05081594AF1
:100E0000136823F0F803216943EAC10313602368E0
:100E100013F0080F42D063696BB3534B0122C3F840
:100E2000802E00F021FC05464E4B5B6F13F0020F45
:100E300034D100F019FC401B0228F5D9032031E120
:100E4000484A136823F0F803216943EAC103136099
:100E5000DDE7454B00221A6000F006FC0546414BD9
:100E60001B6813F0020FD2D000F0FEFB401B0228DB
:100E7000F5D9032016E13C4B0022C3F8802E00F088
:100E8000F3FB0546374B5B6F13F0020F06D000F003
:100E9000EBFB401B0228F5D9032003E1236813F084
:100EA000040F77D02F4B1B6C13F0805F33D10023DE
:100EB00001932C4B1A6C42F080521A641B6C03F0A5
:100EC00080530193019B0125284B1B6813F4807FFD
:100ED00023D0A368012B34D0052B38D0214B1A6FB7
:100EE00022F001021A671A6F22F004021A67A3683F
:100EF000002B3DD000F0B8FB06461A4B1B6F13F0D9
:100F0000020F46D100F0B0FB801B41F288339842BB
:100F1000F3D90320C6E00025D6E7144A136843F44A
:100F20008073136000F0A0FB0646104B1B6813F49F
:100F3000807FCED100F098FB801B0228F5D90320DA
:100F4000B0E0084A136F43F001031367CFE7054B86
:100F50001A6F42F004021A671A6F42F001021A6710
:100F6000C5E700BF00380240000047420070004063
:100F700000F07AFB0646524B1B6F13F0020F08D0AD
:100F800000F072FB801B41F288339842F3D90320B2
:100F900088E0EDB9A369002B00F08380484A92688D
:100FA00002F00C02082A51D0022B17D0454B002228
:100FB0001A6600F059FB0446414B1B6813F0007F92
:100FC00042D000F051FB001B0228F5D9032069E054
:100FD0003B4A136C23F080531364DBE7394B002248
:100FE0001A6600F041FB0546354B1B6813F0007F85
:100FF00006D000F039FB401B0228F5D9032051E050
:10100000E369226A1343626A43EA8213A26A5208BE
:10101000013A43EA0243E26A43EA0263284A536020
:10102000284B01221A6600F01FFB0446244B1B6864
:1010300013F0007F06D100F017FB001B0228F5D942
:1010400003202FE000202DE000202BE0012B2BD0EF
:101050001B4B5B6803F48001E269914226D103F0E7
:101060003F02216A8A4223D1616A47F6C0721A4060
:10107000B2EB811F1ED103F44031A26A5208013A3B
:10108000B1EB024F18D103F07063E26AB3EB026F69
:1010900014D1002006E001207047012002E0012069
:1010A00000E0002002B070BD0120FBE70120F9E75D
:1010B0000120F7E70120F5E70120F3E70120F1E740
:1010C000003802400000474208B5314B9B6803F0EE
:1010D0000C03082B01D02F4808BD2D4B5A6802F095
:1010E0003F025B6813F4800F2CD0294B5868C0F383
:1010F00088104FEA401CBCEB000C6EEB0E0E4FEA62
:101100008E1343EA9C634FEA8C11B1EB0C0163EB45
:101110000E03DB0043EA5173C90011EB000C43F1ED
:101120000003990200234FEA8C2041EA9C51FFF70B
:1011300037F8174B5B68C3F3014301335B00B0FB27
:10114000F3F0C9E7124B5868C0F388104FEA401C0F
:10115000BCEB000C6EEB0E0E4FEA8E1343EA9C6361
:101160004FEA8C11B1EB0C0163EB0E03DB0043EA99
:101170005173C90011EB000C43F1000399020023E5
:101180004FEA8C2041EA9C51FFF70AF8D1E700BFF3
:10119000003802400024F400002800F09B8070B565
:1011A0000D4604464F4B1B6803F007038B4208D2E1
:1011B000CBB24C4A1370136803F007038B4240F024
:1011C0008B80236813F0020F17D013F0040F04D0A4
:1011D000454A936843F4E0539360236813F0080F83
:1011E00004D0414A936843F4604393603E4A936855
:1011F00023F0F003A1680B439360236813F0010F01
:1012000032D06368012B21D09A1E012A25D9364A93
:10121000126812F0020F61D033498A6822F003028B
:1012200013438B6000F020FA06462F4B9B6803F0B7
:101230000C036268B3EB820F16D000F015FA801B26
:1012400041F288339842F0D9032042E0264A1268DE
:1012500012F4003FE0D101203BE0234A126812F073
:10126000007FD9D1012034E01E4B1B6803F0070337
:10127000AB4207D9EAB21B4B1A701B6803F0070395
:10128000AB422DD1236813F0040F06D0164A9368A1
:1012900023F4E053E1680B439360236813F0080FD5
:1012A00007D0114A936823F46043216943EAC103DC
:1012B0009360FFF709FF0C4B9B68C3F303130B4AC2
:1012C000D35CD8400A4B18600A4B1868FFF71AFB2A
:1012D000002070BD012070470120FAE70120F8E7E7
:1012E0000120F6E7003C0240003802405436000876
:1012F0000800002004000020014B1868704700BF60
:101300000800002008B5FFF7F7FF044B9B68C3F304
:101310008223034AD35CD84008BD00BF0038024096
:101320004C36000808B5FFF7E7FF044B9B68C3F392
:101330004233034AD35CD84008BD00BF00380240A6
:101340004C3600080F2303600B4B9A6802F003022F
:1013500042609A6802F0F00282609A6802F4E052F9
:10136000C2609B68DB0803F4E0530361034B1B6816
:1013700003F007030B60704700380240003C024056
:1013800000230F2B00F2D78070B582B065E085682E
:101390004FEA430E032404FA0EF425EA0405CC6850
:1013A00004FA0EF42C438460446824EA02044A6878
:1013B000C2F300129A40224342605CE0DC08083429
:1013C00050F8242003F00705AD004FF00F0E0EFA81
:1013D00005FE22EA0E0E0A69AA4042EA0E0240F811
:1013E00024205CE0042200E0002202FA0EF22A43EC
:1013F0000234514D45F82420504A94686FEA0C029B
:1014000024EA0C054E6816F4801F01D04CEA04054E
:101410004A4CA560E46802EA04054E6816F4001F11
:1014200001D04CEA0405454CE560646802EA040515
:101430004E6816F4003F01D04CEA04053F4C65604D
:10144000246822404D6815F4803F01D04CEA040224
:101450003A4C226001330F2B6BD801229A400C6862
:1014600004EA020C32EA0404F4D14C6804F00304E8
:10147000013C012C8BD94A6802F00302032A09D0EF
:10148000C4685D000322AA4024EA02048A68AA40D4
:101490002243C2604A6802F00302022A8ED0046826
:1014A0004FEA430E032202FA0EF224EA02044A68CB
:1014B00002F0030202FA0EF2224302604A6812F4BA
:1014C000403FC7D0002201921D4A546C44F480442E
:1014D0005464526C02F480420192019A9C08A51C4B
:1014E000154A52F8255003F0030E4FEA8E0E0F22D4
:1014F00002FA0EF225EA0205124A90423FF474AF56
:1015000002F5806290420ED002F5806290420CD0CB
:1015100002F5806290420AD002F5806290423FF468
:1015200061AF072261E701225FE702225DE7032244
:101530005BE702B070BD704700380140003C0140DD
:1015400000380240000002400AB18161704709047E
:1015500081617047002808DB0901C9B200F16040D1
:1015600000F5614080F80013704700F00F0009019A
:10157000C9B2014B1954704714ED00E000B500F0FA
:101580000700C0F1070CBCF1040F28BF4FF0040C9A
:10159000031D062B0FD9C31E4FF0FF3E0EFA0CF0B1
:1015A00021EA000199400EFA03FE22EA0E0241EA06
:1015B00002005DF804FB0023EEE70000074AD36851
:1015C00023F4E0631B041B0C000200F4E0600343FF
:1015D00043F0BF6343F40033D360704700ED00E095
:1015E00010B50446054BD868C0F30220FFF7C6FFCC
:1015F00001462046FFF7AEFF10BD00BF00ED00E042
:10160000002807DB00F01F02400901239340024A33
:1016100042F82030704700BF00E100E008B50B4BF6
:101620001A6842F400721A601A6842F480621A6002
:101630001A6842F480721A600320FFF7BFFF0F2080
:10164000FFF760F9FFF73CF9002008BD003C0240BD
:10165000034A1168034B1B780B441360704700BFAB
:10166000A803002000000020014B1868704700BF4D
:10167000A803002030B4036A23F001030362026A66
:101680004568836923F073030C681C4322F002024F
:101690008B6813430B4A904206D0456084614A68C8
:1016A0004263036230BC704723F00803CA681A43E0
:1016B00022F0040325F440754A692A438D691543D5
:1016C000EBE700BF0000014030B4036A23F48073ED
:1016D0000362036A4468C26922F073020D6815430D
:1016E00023F400738A6843EA02230D4A904206D02D
:1016F0004460C5614A68C263036230BC704723F42A
:101700000063CA6843EA022323F4806324F440544C
:101710004A6944EA02148A6944EA0214E8E700BF0D
:101720000000014030B4036A23F480530362036A6B
:101730004468C26922F4E6420D6842EA052223F4B5
:1017400000538D6843EA0533074DA84206D0446034
:10175000C2614A680264036230BC704724F480446A
:101760004D6944EA8514F2E700000140704700002B
:1017700090F83D30DBB2012B2FD1022380F83D30B1
:101780000268D36843F00103D3600368154A9342AB
:1017900018D0B3F1804F15D0A2F57C42934211D0FE
:1017A00002F5806293420DD002F58062934209D027
:1017B00002F59A32934205D01A6842F001021A608B
:1017C000002070479A6802F00702062A07D01A68BC
:1017D00042F001021A60002070470120704700208B
:1017E000704700BF00000140704770477047704766
:1017F00010B5044603681A6912F0020F11D0DA68B6
:1018000012F0020F0DD06FF002021A61012303776C
:1018100003689B6913F0030F70D0FFF7E6FF002306
:10182000237723681A6912F0040F12D0DA6812F0D5
:10183000040F0ED06FF004021A610223237723688D
:101840009B6913F4407F5FD02046FFF7CEFF002353
:10185000237723681A6912F0080F12D0DA6812F0A1
:10186000080F0ED06FF008021A6104232377236853
:10187000DB6913F0030F4ED02046FFF7B6FF0023BD
:10188000237723681A6912F0100F12D0DA6812F069
:10189000100F0ED06FF010021A610823237723680F
:1018A000DB6913F4407F3DD02046FFF79EFF002305
:1018B000237723681A6912F0010F03D0DA6812F057
:1018C000010F36D123681A6912F0800F03D0DA684D
:1018D00012F0800F34D123681A6912F0400F03D040
:1018E000DA6812F0400F32D123681A6912F0200F23
:1018F00003D0DA6812F0200F30D110BDFFF774FF6B
:101900002046FFF773FF8AE72046FFF76DFF20466A
:10191000FFF76CFF9BE72046FFF766FF2046FFF7C7
:1019200065FFACE72046FFF75FFF2046FFF75EFF4D
:10193000BDE76FF001021A612046FEF791FCC1E796
:101940006FF080021A61204600F091F9C3E76FF052
:1019500040021A612046FFF74AFFC5E76FF02002F8
:101960001A61204600F082F9C7E700000368254AA3
:1019700090420ED0B0F1804F0BD0A2F57C42904245
:1019800007D002F58062904203D002F58062904257
:1019900003D123F070034A6813431A4A90421AD0C5
:1019A000B0F1804F17D0A2F57C42904213D002F5DF
:1019B000806290420FD002F5806290420BD002F517
:1019C0009A32904207D002F58062904203D002F52D
:1019D0008062904203D123F44073CA68134323F01A
:1019E00080034A69134303608B68C3620B68836298
:1019F000044B984202D00123436170470B69036393
:101A0000F9E700BF0000014040B310B5044690F86C
:101A10003D30F3B1022384F83D30214651F8040BE8
:101A2000FFF7A4FF012384F8463084F83E3084F8A1
:101A30003F3084F8403084F8413084F8423084F8F4
:101A4000433084F8443084F8453084F83D30002039
:101A500010BD80F83C30FFF789FEDBE701207047BE
:101A600040B310B5044690F83D30F3B1022384F83A
:101A70003D30214651F8040BFFF778FF012384F82D
:101A8000463084F83E3084F83F3084F8403084F8A3
:101A9000413084F8423084F8433084F8443084F88C
:101AA000453084F83D30002010BD80F83C30FEF712
:101AB00009FEDBE70120704730B4036A23F010030E
:101AC0000362036A4468826922F4E6420D6842EACE
:101AD000052223F020038D6843EA05130C4DA8422C
:101AE00006D0446082614A688263036230BC7047FA
:101AF00023F08003CD6843EA051323F0400324F468
:101B000040644D6944EA85048D6944EA8504E8E748
:101B10000000014038B590F83C30012B66D00446F7
:101B20000D46012380F83C300C2A5AD8DFE802F039
:101B3000075959591B595959305959594400006886
:101B4000FFF798FD2268936943F0080393612268C8
:101B5000936923F0040393612268936929690B4315
:101B6000936100203EE00068FFF7A6FF22689369BA
:101B700043F4006393612268936923F48063936163
:101B800022689369296943EA01239361002029E0CF
:101B90000068FFF799FD2268D36943F00803D36119
:101BA0002268D36923F00403D3612268D3692969C9
:101BB0000B43D361002015E00068FFF7B3FD2268F6
:101BC000D36943F40063D3612268D36923F480634B
:101BD000D3612268D369296943EA0123D3610020D4
:101BE00000E00120002384F83C3038BD0220FCE7EF
:101BF00090F83C20012A35D010B40346012280F829
:101C00003C20022280F83D2002685068946820F051
:101C1000700C086840EA0C0050601A681248824252
:101C200012D0B2F1804F0FD0A0F57C4082420BD091
:101C300000F58060824207D000F58060824203D0C8
:101C400000F59A30824204D124F08004496821438F
:101C50009160012283F83D20002083F83C005DF86C
:101C6000044B7047022070470000014070477047E6
:101C700010B504460268136923F44053C1680B434E
:101C80001361836802691A4343691A43C3691A439B
:101C90000168CB6823F4164323F00C031343CB6095
:101CA0000268536923F4407381690B4353610368ED
:101CB000314A934206D002F58062934202D0FFF788
:101CC00021FB01E0FFF72EFBE369B3F5004F29D0BC
:101CD0000021031849411B1841F10001C90041EAE4
:101CE0005371DB00181863684FEA83024FEA93735D
:101CF00041F10001FEF754FA204AA2FB00314909E4
:101D0000642303FB11031B013233A2FB03235B0992
:101D100003F0F00202EB011203F00F0321681344F9
:101D20008B6010BD0023021843EB0301121841F130
:101D30000001C90041EA5271D200101841F10001BE
:101D4000626892185B41FEF72BFA0C4AA2FB003145
:101D50004909642303FB1103DB003233A2FB032395
:101D60005B095A0002F4F87202EB011203F0070358
:101D7000216813448B60D4E7001001401F85EB51AC
:101D800058B310B5044690F83D300BB3242384F8C3
:101D90003D302268D36823F40053D3602046FFF718
:101DA00067FF2268136923F4904313612268536923
:101DB00023F02A0353612268D36843F40053D360AD
:101DC00000202064202384F83D3084F83E3010BD8C
:101DD00080F83C30FEF726FDD8E701207047000070
:101DE000034AD2F8883043F47003C2F88830704751
:101DF00000ED00E000F1080343604FF0FF32826025
:101E0000C3600361002303607047002303617047D0
:101E100043684B609A688A60516099600861036802
:101E200001330360704730B40D68B5F1FF3F11D046
:101E300000F108031C465B681A68AA42FAD9636875
:101E40004B6099608C6061600861036801330360D6
:101E500030BC70470469F2E70369416882688A60B0
:101E6000416851605A68824206D0002202611A68B5
:101E7000013A1A601868704782685A60F5E710B531
:101E8000044601F0C7F8A26BE36B9A4204D0002429
:101E900001F0E2F8204610BD0124F9E770B50446D0
:101EA0001546866B026C5AB903681BB100200136D7
:101EB000A66370BD806800F05FFE0023A360F6E7B4
:101EC0006DB9406801F022FA6368226C13446360C4
:101ED000A268934219D3236863602846E7E7C06885
:101EE00001F014FAE368226C51429B1AE360226805
:101EF000934202D2A3680B44E360022D01D000207C
:101F0000D5E726B1013E0020D1E72846CFE70020E3
:101F1000CDE738B5054601F07DF895F8454064B247
:101F200001E0013C64B2002C0ADD6B6A43B105F1AB
:101F3000240000F077FD0028F3D000F007FEF0E762
:101F4000FF2385F8453001F087F801F063F895F834
:101F5000444064B201E0013C64B2002C0ADD2B690C
:101F600043B105F1100000F05DFD0028F3D000F052
:101F7000EDFDF0E7FF2385F8443001F06DF838BD42
:101F800038B5E0B10D46044601F044F82368E26B31
:101F9000216C01FB0230A0600020A0636360013A65
:101FA00002FB0133E360FF2384F8443084F84530BA
:101FB000FDB9236963B901F04FF8012038BD4FF036
:101FC000500383F31188BFF36F8FBFF34F8FFEE78A
:101FD00004F1100000F026FD0028ECD04FF0E023C3
:101FE0004FF08052C3F8042DBFF34F8FBFF36F8FB4
:101FF000E1E704F11000FFF7FDFE04F12400FFF714
:10200000F9FED8E710B5034602980C4631B90060D6
:10201000C36304640121FFF7B3FF10BD0260F7E75B
:1020200040B94FF0500383F31188BFF36F8FBFF3B4
:102030004F8FFEE710B584B01C46844653B192B171
:1020400089B94FF0500383F31188BFF36F8FBFF34B
:102050004F8FFEE74FF0500383F31188BFF36F8F6C
:10206000BFF34F8FFEE76AB148230393039B482BCE
:1020700013D04FF0500383F31188BFF36F8FBFF37A
:102080004F8FFEE70029EFD04FF0500383F3118804
:10209000BFF36F8FBFF34F8FFEE7039B012384F8DD
:1020A000463000949DF818306046FFF7ABFF20469D
:1020B00004B010BD40B94FF0500383F31188BFF353
:1020C0006F8FBFF34F8FFEE7F0B583B00D46144618
:1020D000064601FB00F0483000F074FE074650B1A0
:1020E000002380F846300090234600F1480229463C
:1020F0003046FFF787FF384603B0F0BDF0B585B036
:10210000019288B10F461D460446B1B1022D20D17F
:10211000E36B012B1DD04FF0500383F31188BFF305
:102120006F8FBFF34F8FFEE74FF0500383F311889B
:10213000BFF36F8FBFF34F8FFEE7036C002BE5D02B
:102140004FF0500383F31188BFF36F8FBFF34F8FAE
:10215000FEE700F001FD064658B9019B002B48D070
:102160004FF0500383F31188BFF36F8FBFF34F8F8E
:10217000FEE700263DE02A4639462046FFF78EFE60
:10218000636A7BB948B14FF0E0234FF08052C3F847
:10219000042DBFF34F8FBFF36F8F00F05DFF012061
:1021A00005B0F0BD04F1240000F03CFC0028F4D0A0
:1021B0004FF0E0234FF08052C3F8042DBFF34F8F50
:1021C000BFF36F8FE9E700F047FF0020E8E702A8C0
:1021D00000F06EFC012619E0002384F8443021E071
:1021E000002384F8453023E02046FFF792FE00F0FC
:1021F00013FB00F00FFFA26BE36B9A42BBD3022DDF
:10220000B9D0019B002BDED0002EE0D000F024FFDF
:1022100000F06EFA00F0FEFE94F8442052B2B2F1E3
:10222000FF3FD9D094F8452052B2B2F1FF3FD7D04A
:1022300000F012FF01A902A800F046FCD8B9204620
:10224000FFF71DFE0028CFD0019904F1100000F027
:10225000D1FB2046FFF75DFE00F0DEFA0028C8D172
:102260004FF0E0234FF08052C3F8042DBFF34F8F9F
:10227000BFF36F8FBDE72046FFF74BFE00F0CCFAAF
:1022800000208DE7084B1B681B6823B9074B4FF0F4
:10229000FF321A607047044B1B68DB68DB685A68C2
:1022A000024B1A60704700BF1C040020B4030020DA
:1022B0002DE9F04707469846089DDDF824900A9CD2
:1022C000266B02F18042013A06EB820626F00706F1
:1022D000C1B308464FF0000CBCF10F0F09D810F83D
:1022E0000C2004EB0C0383F8342012B10CF1010C28
:1022F000F2E7002384F84330062D00D90625E56275
:1023000065644FF0000AC4F848A0201DFFF77DFD6A
:1023100004F11800FFF779FD2461C5F10705A561F7
:102320006462C4F84CA084F850A042463946304656
:1023300000F046FE2060B9F1000F01D0C9F800405E
:10234000BDE8F087002384F83430D5E738B50024A1
:1023500007E004EB840293000E481844FFF74AFD9F
:102360000134062CF5D90C4D2846FFF743FD0B4CE4
:102370002046FFF73FFD0A48FFF73CFD0948FFF7FD
:1023800039FD0948FFF736FD084B1D60084B1C60FE
:1023900038BD00BF48040020340400202004002081
:1023A00004040020F0030020D80300201C040020B7
:1023B0001804002010B5044600F02CFE214A1368D2
:1023C00001331360204B1B685BB1204B1B686BB95A
:1023D0001D4B1B68DA6AE36A9A4207D81A4B1C60E5
:1023E00004E0194B1C601368012B28D0184A1368AD
:1023F00001331360E06A01238340164A11680B43DE
:10240000136000EB8000211D134B03EB8000FFF7EE
:10241000FFFC00F021FE0D4B1B687BB10A4B1B68D3
:10242000DA6AE36A9A4209D24FF0E0234FF0805211
:10243000C3F8042DBFF34F8FBFF36F8F10BDFFF7AD
:1024400085FFD3E7D4030020D4040020C803002074
:10245000B8030020CC0300204804002010B5044637
:1024600090F8513063B1012B11D0022B0ED04FF0F8
:10247000500383F31188BFF36F8FBFF34F8FFEE7D5
:10248000006B00F021FD204600F01EFD10BD00F0A5
:102490001BFDFBE70F4B1B68D3B110B500F0BAFD75
:1024A0000D4BDB68DC68201DFFF7D6FC0B4A136878
:1024B000013B1360074A1368013B136000F0CCFD39
:1024C0002046FFF7CBFF034B1B68002BE6D110BD66
:1024D000704700BFEC030020F0030020D40300206D
:1024E00008B5FFF7D7FF074B1B68012BF9D94FF051
:1024F000E0234FF08052C3F8042DBFF34F8FBFF39A
:102500006F8FEEE74804002070B504460D461D4B62
:102510001E681D4B18680430FFF79EFC48B91A4B23
:102520001B68DB6A01229A4018490B6823EA020300
:102530000B60B4F1FF3F0DD03444134B1B685C605B
:10254000A64210D9124B18680F4B19680431FFF7D7
:102550006AFC70BD002DEFD00B4B196804310D489B
:10256000FFF756FCF5E70C4B1868074B1968043168
:10257000FFF759FC094B1B68A342EAD9074B1C60C3
:10258000E7E700BFD0030020D4040020CC030020E4
:1025900018040020D80300201C040020B4030020ED
:1025A00030B587B00B9C7CB10C9DB5B1542504951A
:1025B000049D542D1AD04FF0500383F31188BFF3BC
:1025C0006F8FBFF34F8FFEE74FF0500383F31188F7
:1025D000BFF36F8FBFF34F8FFEE74FF0500383F3CE
:1025E0001188BFF36F8FBFF34F8FFEE7049D0C9DE3
:1025F0002C63022485F8514000240394029505AC15
:1026000001940A9C0094FFF753FE0C98FFF7D2FE4A
:10261000059807B030BD2DE9F04385B007468846E0
:1026200014461E46900000F0CDFB08B381465420AE
:1026300000F0C8FB0546A8B1C0F83090002380F830
:102640005130039302900D9B01930C9B00933346F2
:10265000224641463846FFF72BFE2846FFF7AAFEE2
:10266000012007E0484600F02FFC4FF0FF3001E06A
:102670004FF0FF3005B0BDE8F083000010B588B022
:1026800000240594069407AA06A905A8FDF7E6FE0E
:10269000059B0293069B019300942346079A0E49DB
:1026A0000E48FFF77DFF0E4B186090B14FF05003BE
:1026B00083F31188BFF36F8FBFF34F8F094B4FF038
:1026C000FF321A60084B01221A60084B1C6000F0B0
:1026D0003BFD08B010BD00BF64360008E1240008CF
:1026E000B0030020B4030020C8030020D003002062
:1026F000024A136801331360704700BFAC03002027
:10270000F8B53A4B1B68002B69D1394B1D68013570
:102710001D60C5B9374B1B681B6843B14FF05003B0
:1027200083F31188BFF36F8FBFF34F8FFEE7314AFA
:102730001168314B186810601960304A1368013312
:102740001360FFF79FFD2E4B1B68AB423DD900275E
:102750002C4B1B68DB6A03EB83039A002A4B9B58C4
:10276000012B00D90127294B1B68002B3CD00127E6
:102770003AE001271F4B1B681B6843B31D4B1B68C6
:10278000DB68DC6863689D4226D3261D3046FFF770
:1027900063FBA36A1BB104F11800FFF75DFBE36A5A
:1027A00001229A401A49086802430A6003EB830336
:1027B0009A00314614481044FFF72AFBE26A114B95
:1027C0001B68DB6A9A42D4D2D4E70027D2E70C4BCD
:1027D0004FF0FF321A60BBE7094A1360B8E70D4AB1
:1027E00013680133136000273846F8BDAC0300209E
:1027F000D00300201C04002018040020BC0300208B
:10280000B4030020D404002048040020C0030020AA
:10281000CC030020C403002038B5354B1B6843B9F6
:102820004FF0500383F31188BFF36F8FBFF34F8FC7
:10283000FEE700F0EFFB2E4B1A68013A1A601B68A6
:10284000002B4FD12B4B1B680BB900244BE000240D
:10285000294B1B681BB3284BDB68DC6804F11800AC
:10286000FFF7FAFA251D2846FFF7F6FAE06A01237A
:102870008340224A11680B43136000EB8000294615
:102880001F4B03EB8000FFF7C3FAE26A1D4B1B6886
:10289000DB6A9A42DCD31C4B01221A60D8E70CB1E8
:1028A000FFF7F0FC194B1C6884B9174B1C68D4B1B6
:1028B0004FF0E0234FF08052C3F8042DBFF34F8F49
:1028C000BFF36F8F01240EE0013C07D0FFF718FF24
:1028D0000028F9D00C4B01221A60F5E70B4B0022BF
:1028E0001A60E2E7002400F0B7FB204638BD00BFC5
:1028F000AC030020D403002004040020CC030020FB
:1029000048040020D4040020C0030020C403002099
:1029100010B5A8B10446104B1B6843B14FF05003EB
:1029200083F31188BFF36F8FBFF34F8FFEE7FFF77D
:10293000DFFE00212046FFF7E7FDFFF76DFF48B9F6
:102940004FF0E0234FF08052C3F8042DBFF34F8FB8
:10295000BFF36F8F10BD00BFAC030020204B1B687E
:102960001BB1204B01221A6070471E4B00221A60D7
:102970001D4B1B68B3FA83F3DBB2C3F11F0303EBF8
:1029800083018A0019498A5842B94FF0500383F3F2
:102990001188BFF36F8FBFF34F8FFEE7134803EB30
:1029A00083018A00024451684968516003EB830C3B
:1029B0004FEA8C0208320244914209D003EB8303B0
:1029C0009A000A4B13445B68DA68094B1A60704737
:1029D000486862469100054A0A445060EEE700BF2D
:1029E000AC030020C0030020CC03002048040020DA
:1029F000D404002058B110B50C46094A11681831AA
:102A0000FFF711FA01212046FFF77EFD10BD4FF0C0
:102A1000500383F31188BFF36F8FBFF34F8FFEE72F
:102A2000D404002038B5C368DC6824B304F1180569
:102A30002846FFF711FA184B1B682BBB251D2846AB
:102A4000FFF70AFAE06A01238340144A11680B4336
:102A5000136000EB80002946114B03EB8000FFF769
:102A6000D7F9E26A0F4B1B68DB6A9A4211D9012041
:102A70000D4B186038BD4FF0500383F31188BFF33E
:102A80006F8FBFF34F8FFEE729460848FFF7C0F965
:102A9000E7E70020EEE700BFAC030020CC030020F6
:102AA00048040020D4040020C003002004040020B7
:102AB000034B1B680360034B1B684360704700BFF8
:102AC000BC030020D0030020F8B5C8B10C46054671
:102AD000F9B100F09FFA1B4B19686B68C81A22689D
:102AE000B2F1FF3F26D0184E36682F68B74201D0AA
:102AF0008B4224D9824215D80023236001241AE096
:102B00004FF0500383F31188BFF36F8FBFF34F8FE4
:102B1000FEE74FF0500383F31188BFF36F8FBFF3CD
:102B20004F8FFEE75B1A134423602846FFF7C0FF70
:102B3000002400E0002400F08FFA2046F8BD0124B4
:102B4000F9E700BFD0030020BC030020014B0122A5
:102B50001A607047C0030020054B1B6833B1054B5A
:102B60001B680BB10020704702207047012070479E
:102B7000C8030020AC03002000284BD038B5044621
:102B8000264B1B68834208D04FF0500383F3118813
:102B9000BFF36F8FBFF34F8FFEE7836C43B94FF0E6
:102BA000500383F31188BFF36F8FBFF34F8FFEE79E
:102BB000013B8364C16A426C91422DD00BB100206D
:102BC00038BD051D2846FFF747F968B9E36A03EBEE
:102BD0008302920012498A5832B901229A4011495F
:102BE0000B6823EA02030B60606CE062C0F107032C
:102BF000A361012404FA00F30A4A11680B4313602D
:102C000000EB80002946064B03EB8000FFF700F93C
:102C10002046D5E7002070470020D1E7D4040020EB
:102C200048040020CC030020842801D003307047E2
:102C30000020704708B5FFF721FD002008BD2DE9F1
:102C4000F04387B00E464469C4B18569B5B14768A1
:102C5000D0F80080D0F81090B0F90800FFF7E4FF3A
:102C600002950194009033464A4641463846FFF7A4
:102C700097FC0590059807B0BDE8F08344680568A7
:102C80000769B0F90800FFF7CFFF05AB019300908B
:102C90003346BAB229462046FFF7BDFC0128E9D0E9
:102CA0000020E8E708B500B90120FFF731FE002059
:102CB00008BD10B582B044687CB1012903D000245E
:102CC000204602B010BD0323009323460022114684
:102CD0000120FFF7A5F90446F2E70129F0D103220C
:102CE00000210120FFF7E6F904460028E8D0002380
:102CF0001A461946FFF702FAE2E70000124A12F0FC
:102D0000070F1ED0D11D21F00701C1F570531344E8
:102D10000A460E480260002141601344083B23F03C
:102D200007030B48036059601960991A51601360DA
:102D3000084B1960084B1960084B4FF000421A60AD
:102D400070474FF47053E4E7F8040020F0040020CB
:102D5000EC040020E4040020E8040020D804002053
:102D6000164B1A461B688342FBD3516802EB010CD9
:102D7000844509D0416800EB010C634509D003602C
:102D8000904219D01060704740680144516010466D
:102D9000F0E710B40A4C2468A3420BD05B681944D6
:102DA000416013681B680360904200D010605DF8BA
:102DB000044B70470460F7E7704700BFF004002041
:102DC000EC04002038B50446FFF792FC384B1B6832
:102DD000B3B1384B1B681C4250D1002C50D004F1C9
:102DE000080214F0070F02D022F007020832002A6E
:102DF00055D0314B1B68934253D330490C6804E0E3
:102E0000FFF77CFFE5E721461C466368934202D248
:102E10002368002BF7D1264B1B68A34243D00D68D3
:102E2000083523680B6063689B1A102B10D9A01813
:102E300010F0070F08D04FF0500383F31188BFF351
:102E40006F8FBFF34F8FFEE743606260FFF788FF2D
:102E5000626819490B689B1A0B60194909688B4213
:102E600001D217490B60134B1B68134363600023A7
:102E70002360144A13680133136002E0002500E068
:102E80000025FFF7C9FC15F0070F0ED04FF05003D7
:102E900083F31188BFF36F8FBFF34F8FFEE70025D9
:102EA000EFE70025EDE70025EBE7284638BD00BF3A
:102EB000EC040020D8040020E8040020F0040020E6
:102EC000E4040020E0040020002834D038B5044693
:102ED000A0F1080550F8043C174A1268134208D1C3
:102EE0004FF0500383F31188BFF36F8FBFF34F8F01
:102EF000FEE750F8081C41B14FF0500383F31188EE
:102F0000BFF36F8FBFF34F8FFEE723EA020340F852
:102F1000043CFFF7EDFB54F8041C084A13680B440B
:102F200013602846FFF71CFF054A1368013313603E
:102F3000FFF772FC38BD7047D8040020E804002079
:102F4000DC04002082B0002301930D4B1B68B3F119
:102F5000FF3F08D04FF0500383F31188BFF36F8F0A
:102F6000BFF34F8FFEE74FF0500383F31188BFF399
:102F70006F8FBFF34F8F019B002BFCD002B07047C7
:102F80000C00002008480068006880F308884FF0B3
:102F9000000080F3148862B661B6BFF34F8FBFF3B1
:102FA0006F8F00DF00BF000008ED00E0DFF80C00CD
:102FB000016841F4700101607047000088ED00E095
:102FC0004FF0807340F8043C21F0010140F8081CE8
:102FD000054B40F80C3C40F8202C6FF0020340F801
:102FE000243C4438704700BF452F00080000000013
:102FF000074B19680868B0E8F04F80F30988BFF301
:103000006F8F4FF0000080F311887047AFF300809E
:10301000D40400204FF0500383F31188BFF36F8F67
:10302000BFF34F8F0B4A136801331360012B00D09D
:1030300070474FF0E023D3F8043D13F0FF0FF7D0B3
:103040004FF0500383F31188BFF36F8FBFF34F8F9F
:10305000FEE700BF0C000020094B1B6843B94FF08E
:10306000500383F31188BFF36F8FBFF34F8FFEE7D9
:10307000013B034A13600BB983F31188704700BF0B
:103080000C00002000000000000000000000000014
:10309000EFF30980BFF36F8F154B1A681EF0100F06
:1030A00008BF20ED108A20E9F04F10602DE90900DB
:1030B0004FF0500080F31188BFF34F8FBFF36F8F35
:1030C000FFF74CFC4FF0000080F3118809BC196831
:1030D0000868B0E8F04F1EF0100F08BFB0EC108A7F
:1030E00080F30988BFF36F8F704700BFAFF3008094
:1030F000D404002008B54FF0500383F31188BFF3C8
:103100006F8FBFF34F8FFFF7FBFA28B14FF0E0232B
:103110004FF08052C3F8042D002383F3118808BDBB
:103120004FF0E022002313619361054B1B680549B2
:10313000A1FB03139B09013B5361072313617047F4
:1031400008000020D34D62104FF0E023D3F8002D8B
:103150003D4B9A421CD04FF0E023D3F8002D3B4B5F
:103160009A421ED030B583B0394B1A78D2B2019250
:10317000FF221A701B78DBB28DF803309DF8033004
:1031800003F05003334A1370334B07221A601BE0DD
:103190004FF0500383F31188BFF36F8FBFF34F8F4E
:1031A000FEE74FF0500383F31188BFF36F8FBFF337
:1031B0004F8FFEE7284A1368013B13609DF80330E8
:1031C0005B00DBB28DF803309DF8033013F0800F05
:1031D000F0D1214B1B68032B08D04FF0500383F331
:1031E0001188BFF36F8FBFF34F8FFEE71B021A4AA0
:1031F000136003F4E0631360019BDBB2144A1370A5
:103200004FF0E024D4F8203D43F47003C4F8203D8F
:10321000D4F8203D43F07043C4F8203DFFF780FF11
:1032200000250E4B1D60FFF7C1FED4F8343F43F07C
:103230004043C4F8343FFFF7A5FEFFF78FFBFFF7CD
:1032400081FE284603B030BD71C20F4170C20F41EC
:1032500000E400E0FC400020F84000200C000020CA
:10326000DFF834D00D480E490E4A002302E0D4584E
:10327000C4500433C4188C42F9D30B4A0B4C0023BE
:1032800001E013600432A242FBD3FEF7A9FD00F077
:1032900019F8FDF737F87047000002200000002001
:1032A000100000207C3600081000002000410020A3
:1032B000FEE702440346934200D1704703F8011B26
:1032C000F9E7000070B50D4D0D4C641BA4100026ED
:1032D000A64209D10B4D0C4C00F084F9641BA410DC
:1032E0000026A64205D170BD55F8043B984701362B
:1032F000EEE755F8043B98470136F2E774360008CC
:103300007436000874360008783600080A44914282
:1033100000F1FF3300D1704710B511F8014B03F8ED
:10332000014F9142F9D110BD2DE9F047089D0C469F
:10333000002B4ED194468C458646B2FA82F262D971
:103340004AB1C2F12003914020FA03F30CFA02FCC7
:10335000194300FA02FE4FEA1C471FFA8CF6B1FB34
:10336000F7F44FEA1E4307FB141143EA014304FB41
:1033700006F199420AD91CEB030304F1FF3080F0F7
:103380001281994240F20F81023C6344591A1FFA9C
:103390008EF3B1FBF7F007FB101143EA014300FB8A
:1033A00006F69E420AD91CEB030300F1FF3180F0C0
:1033B000FC809E4240F2F980634402389B1B40EA45
:1033C000044000211DB1D3400022C5E90032BDE810
:1033D000F0878B4205D90DB1C5E9000100210846EF
:1033E000F5E7B3FA83F1002946D1A34202D3904214
:1033F000C0F0F080861A64EB03030120002DE6D0B4
:10340000C5E90063E3E7002A40F09080A1EB0C04DB
:103410004FEA1C481FFA8CF70121B4FBF8F64FEA7B
:103420001E4308FB164443EA044307FB06F0984298
:1034300008D91CEB030306F1FF3402D2984200F2D4
:10344000CD8026461C1A1FFA8EF3B4FBF8F008FB59
:10345000104443EA044300FB07F79F4208D91CEBE2
:10346000030300F1FF3402D29F4200F2B0802046F5
:10347000DB1B40EA0640A5E7C1F120068B4022FA9B
:1034800006F71F4320FA06FC04FA01F343EA0C0393
:10349000F44000FA01F8380C4FEA1349B4FBF0FE8F
:1034A0001FFA87FC00FB1E4449EA04440EFB0CF99A
:1034B000A14502FA01F20AD93C190EF1FF3A80F057
:1034C0008480A14540F28180AEF1020E3C44A4EB21
:1034D00009041FFA83F9B4FBF0F300FB134449EA33
:1034E000044403FB0CFCA44507D93C1903F1FF304D
:1034F00067D2A44565D9023B3C4443EA0E40A0FB99
:103500000293A4EB0C049C42CE469C4651D34ED071
:1035100055B1B8EB0E0364EB0C0404FA06F6CB408D
:103520001E43CC40C5E90064002150E7C2F12003EE
:1035300020FA03F10CFA02FC24FA03F394400C4342
:103540004FEA1C4800FA02FE1FFA8CF7B3FBF8F0B2
:1035500008FB1031230C43EA014300FB07F19942B9
:1035600008D91CEB030300F1FF362CD299422AD96B
:10357000023863445B1AA4B2B3FBF8F108FB1133C1
:1035800044EA034401FB07F3A34208D91CEB0404FB
:1035900001F1FF3613D2A34211D902396444E41A6F
:1035A00041EA004139E70446F0E6084606E7C84527
:1035B000AED2B9EB020E63EB070C0138A8E7314637
:1035C000EDE7034699E73046D4E7D6467FE7634404
:1035D00002384DE70646234608460FE7023E63449D
:1035E00030E700BFF8B500BFF8BC08BC9E46704786
:0C35F000F8B500BFF8BC08BC9E46704750
:1035FC004036000831040008000000000000000004
:10360C000004000000000000000000003436000838
:10361C005504000800000000000000000004000039
:10362C000000000000000000636F6D6D5461736B4F
:10363C000000000064726976655461736B000000D1
:10364C000000000001020304000000000000000064
:10365C00010203040607080949444C450000000018
:08366C00BCFCFF7F010000001F
:043674003D0200080B
:04367800150200082F
:10367C0001000000100000000024F400AAAAAAAA6D
:04000005080032615C
:00000001FF
